{
  "contractName": "Staking",
  "abi": [
    {
      "inputs": [
        {
          "internalType": "address",
          "name": "_owner",
          "type": "address"
        },
        {
          "internalType": "address",
          "name": "_devAddress",
          "type": "address"
        },
        {
          "internalType": "contract SLETH",
          "name": "_slETH",
          "type": "address"
        }
      ],
      "stateMutability": "nonpayable",
      "type": "constructor"
    },
    {
      "anonymous": false,
      "inputs": [
        {
          "indexed": true,
          "internalType": "address",
          "name": "user",
          "type": "address"
        },
        {
          "indexed": false,
          "internalType": "uint256",
          "name": "amount",
          "type": "uint256"
        }
      ],
      "name": "ClaimRewards",
      "type": "event"
    },
    {
      "anonymous": false,
      "inputs": [
        {
          "indexed": true,
          "internalType": "address",
          "name": "token",
          "type": "address"
        },
        {
          "indexed": true,
          "internalType": "address",
          "name": "user",
          "type": "address"
        },
        {
          "indexed": false,
          "internalType": "uint256",
          "name": "amount",
          "type": "uint256"
        },
        {
          "indexed": false,
          "internalType": "uint256",
          "name": "balance",
          "type": "uint256"
        }
      ],
      "name": "Stake",
      "type": "event"
    },
    {
      "anonymous": false,
      "inputs": [
        {
          "indexed": true,
          "internalType": "address",
          "name": "user",
          "type": "address"
        },
        {
          "indexed": false,
          "internalType": "uint256",
          "name": "amount",
          "type": "uint256"
        },
        {
          "indexed": false,
          "internalType": "uint256",
          "name": "timestamp",
          "type": "uint256"
        }
      ],
      "name": "TransferSeth",
      "type": "event"
    },
    {
      "anonymous": false,
      "inputs": [
        {
          "indexed": true,
          "internalType": "address",
          "name": "token",
          "type": "address"
        },
        {
          "indexed": true,
          "internalType": "address",
          "name": "user",
          "type": "address"
        },
        {
          "indexed": false,
          "internalType": "uint256",
          "name": "amount",
          "type": "uint256"
        },
        {
          "indexed": false,
          "internalType": "uint256",
          "name": "balance",
          "type": "uint256"
        }
      ],
      "name": "Withdraw",
      "type": "event"
    },
    {
      "inputs": [],
      "name": "DEPOSIT_SIZE",
      "outputs": [
        {
          "internalType": "uint256",
          "name": "",
          "type": "uint256"
        }
      ],
      "stateMutability": "view",
      "type": "function",
      "constant": true
    },
    {
      "inputs": [],
      "name": "ETHER",
      "outputs": [
        {
          "internalType": "address",
          "name": "",
          "type": "address"
        }
      ],
      "stateMutability": "view",
      "type": "function",
      "constant": true
    },
    {
      "inputs": [],
      "name": "devAddress",
      "outputs": [
        {
          "internalType": "address",
          "name": "",
          "type": "address"
        }
      ],
      "stateMutability": "view",
      "type": "function",
      "constant": true
    },
    {
      "inputs": [],
      "name": "fee",
      "outputs": [
        {
          "internalType": "uint8",
          "name": "",
          "type": "uint8"
        }
      ],
      "stateMutability": "view",
      "type": "function",
      "constant": true
    },
    {
      "inputs": [
        {
          "internalType": "address",
          "name": "",
          "type": "address"
        }
      ],
      "name": "hasStaked",
      "outputs": [
        {
          "internalType": "bool",
          "name": "",
          "type": "bool"
        }
      ],
      "stateMutability": "view",
      "type": "function",
      "constant": true
    },
    {
      "inputs": [
        {
          "internalType": "address",
          "name": "",
          "type": "address"
        }
      ],
      "name": "isStaking",
      "outputs": [
        {
          "internalType": "bool",
          "name": "",
          "type": "bool"
        }
      ],
      "stateMutability": "view",
      "type": "function",
      "constant": true
    },
    {
      "inputs": [],
      "name": "owner",
      "outputs": [
        {
          "internalType": "address",
          "name": "",
          "type": "address"
        }
      ],
      "stateMutability": "view",
      "type": "function",
      "constant": true
    },
    {
      "inputs": [
        {
          "internalType": "address",
          "name": "",
          "type": "address"
        }
      ],
      "name": "rewardBalance",
      "outputs": [
        {
          "internalType": "uint256",
          "name": "",
          "type": "uint256"
        }
      ],
      "stateMutability": "view",
      "type": "function",
      "constant": true
    },
    {
      "inputs": [],
      "name": "slETH",
      "outputs": [
        {
          "internalType": "contract SLETH",
          "name": "",
          "type": "address"
        }
      ],
      "stateMutability": "view",
      "type": "function",
      "constant": true
    },
    {
      "inputs": [],
      "name": "stakedAmount",
      "outputs": [
        {
          "internalType": "uint256",
          "name": "",
          "type": "uint256"
        }
      ],
      "stateMutability": "view",
      "type": "function",
      "constant": true
    },
    {
      "inputs": [
        {
          "internalType": "uint256",
          "name": "",
          "type": "uint256"
        }
      ],
      "name": "stakers",
      "outputs": [
        {
          "internalType": "address",
          "name": "",
          "type": "address"
        }
      ],
      "stateMutability": "view",
      "type": "function",
      "constant": true
    },
    {
      "inputs": [
        {
          "internalType": "address",
          "name": "",
          "type": "address"
        },
        {
          "internalType": "address",
          "name": "",
          "type": "address"
        }
      ],
      "name": "stakingBalance",
      "outputs": [
        {
          "internalType": "uint256",
          "name": "",
          "type": "uint256"
        }
      ],
      "stateMutability": "view",
      "type": "function",
      "constant": true
    },
    {
      "inputs": [],
      "name": "stakeETHER",
      "outputs": [],
      "stateMutability": "payable",
      "type": "function",
      "payable": true
    },
    {
      "inputs": [
        {
          "internalType": "uint256",
          "name": "_reward",
          "type": "uint256"
        }
      ],
      "name": "setReward",
      "outputs": [],
      "stateMutability": "nonpayable",
      "type": "function"
    },
    {
      "inputs": [],
      "name": "claimReward",
      "outputs": [],
      "stateMutability": "nonpayable",
      "type": "function"
    },
    {
      "inputs": [],
      "name": "claimFee",
      "outputs": [],
      "stateMutability": "nonpayable",
      "type": "function"
    },
    {
      "inputs": [
        {
          "internalType": "uint256",
          "name": "_amount",
          "type": "uint256"
        }
      ],
      "name": "withdrawEther",
      "outputs": [],
      "stateMutability": "nonpayable",
      "type": "function"
    },
    {
      "inputs": [
        {
          "internalType": "address",
          "name": "_user",
          "type": "address"
        }
      ],
      "name": "balanceOf",
      "outputs": [
        {
          "internalType": "uint256",
          "name": "",
          "type": "uint256"
        }
      ],
      "stateMutability": "view",
      "type": "function",
      "constant": true
    },
    {
      "inputs": [],
      "name": "stillStaking",
      "outputs": [
        {
          "internalType": "bool",
          "name": "",
          "type": "bool"
        }
      ],
      "stateMutability": "view",
      "type": "function",
      "constant": true
    }
  ],
  "bytecode": "0x6080604052604b600160146101000a81548160ff021916908360ff1602179055503480156200002d57600080fd5b50604051620017b1380380620017b183398181016040528101906200005391906200014c565b826000806101000a81548173ffffffffffffffffffffffffffffffffffffffff021916908373ffffffffffffffffffffffffffffffffffffffff16021790555081600160006101000a81548173ffffffffffffffffffffffffffffffffffffffff021916908373ffffffffffffffffffffffffffffffffffffffff16021790555080600460006101000a81548173ffffffffffffffffffffffffffffffffffffffff021916908373ffffffffffffffffffffffffffffffffffffffff1602179055505050506200021e565b6000815190506200012f81620001ea565b92915050565b600081519050620001468162000204565b92915050565b6000806000606084860312156200016257600080fd5b600062000172868287016200011e565b935050602062000185868287016200011e565b9250506040620001988682870162000135565b9150509250925092565b6000620001af82620001ca565b9050919050565b6000620001c382620001a2565b9050919050565b600073ffffffffffffffffffffffffffffffffffffffff82169050919050565b620001f581620001a2565b81146200020157600080fd5b50565b6200020f81620001b6565b81146200021b57600080fd5b50565b611583806200022e6000396000f3fe6080604052600436106101145760003560e01c80636f49712b116100a05780639e10a6ee116100645780639e10a6ee14610382578063b88a802f146103ad578063c93c8f34146103c4578063ddca3f4314610401578063fd5e6dd11461042c57610114565b80636f49712b146102bc57806370a08231146102f95780638da5cb5b1461033657806399d32fc4146103615780639ca628811461037857610114565b80633ad10ef6116100e75780633ad10ef6146101d55780633bed33ce1461020057806342cb1fbc1461022957806361d5c23b1461025457806367b40cf71461027f57610114565b806329161a0014610119578063293be4561461015657806336bf33251461017f578063373d6132146101aa575b600080fd5b34801561012557600080fd5b50610140600480360381019061013b9190611079565b610469565b60405161014d91906112c3565b60405180910390f35b34801561016257600080fd5b5061017d600480360381019061017891906110b5565b61048e565b005b34801561018b57600080fd5b506101946104f0565b6040516101a191906112c3565b60405180910390f35b3480156101b657600080fd5b506101bf6104fd565b6040516101cc91906112c3565b60405180910390f35b3480156101e157600080fd5b506101ea610503565b6040516101f791906111e9565b60405180910390f35b34801561020c57600080fd5b50610227600480360381019061022291906110b5565b610529565b005b34801561023557600080fd5b5061023e6105cb565b60405161024b91906111e9565b60405180910390f35b34801561026057600080fd5b506102696105d0565b6040516102769190611248565b60405180910390f35b34801561028b57600080fd5b506102a660048036038101906102a19190611050565b6105f6565b6040516102b391906112c3565b60405180910390f35b3480156102c857600080fd5b506102e360048036038101906102de9190611050565b61060e565b6040516102f0919061122d565b60405180910390f35b34801561030557600080fd5b50610320600480360381019061031b9190611050565b61062e565b60405161032d91906112c3565b60405180910390f35b34801561034257600080fd5b5061034b6106b4565b60405161035891906111e9565b60405180910390f35b34801561036d57600080fd5b506103766106d8565b005b6103806107e2565b005b34801561038e57600080fd5b50610397610c2d565b6040516103a4919061122d565b60405180910390f35b3480156103b957600080fd5b506103c2610c81565b005b3480156103d057600080fd5b506103eb60048036038101906103e69190611050565b610e28565b6040516103f8919061122d565b60405180910390f35b34801561040d57600080fd5b50610416610e48565b6040516104239190611307565b60405180910390f35b34801561043857600080fd5b50610453600480360381019061044e91906110b5565b610e5b565b60405161046091906111e9565b60405180910390f35b6006602052816000526040600020602052806000526040600020600091509150505481565b60008054906101000a900473ffffffffffffffffffffffffffffffffffffffff1673ffffffffffffffffffffffffffffffffffffffff163373ffffffffffffffffffffffffffffffffffffffff16146104e657600080fd5b8060038190555050565b6801bc16d674ec80000081565b60075481565b600160009054906101000a900473ffffffffffffffffffffffffffffffffffffffff1681565b60008054906101000a900473ffffffffffffffffffffffffffffffffffffffff1673ffffffffffffffffffffffffffffffffffffffff163373ffffffffffffffffffffffffffffffffffffffff161461058157600080fd5b3373ffffffffffffffffffffffffffffffffffffffff166108fc829081150290604051600060405180830381858888f193505050501580156105c7573d6000803e3d6000fd5b5050565b600081565b600460009054906101000a900473ffffffffffffffffffffffffffffffffffffffff1681565b60086020528060005260406000206000915090505481565b60096020528060005260406000206000915054906101000a900460ff1681565b6000600660008073ffffffffffffffffffffffffffffffffffffffff1673ffffffffffffffffffffffffffffffffffffffff16815260200190815260200160002060008373ffffffffffffffffffffffffffffffffffffffff1673ffffffffffffffffffffffffffffffffffffffff168152602001908152602001600020549050919050565b60008054906101000a900473ffffffffffffffffffffffffffffffffffffffff1681565b60008054906101000a900473ffffffffffffffffffffffffffffffffffffffff1673ffffffffffffffffffffffffffffffffffffffff163373ffffffffffffffffffffffffffffffffffffffff161461073057600080fd5b600060025411610775576040517f08c379a000000000000000000000000000000000000000000000000000000000815260040161076c906112a3565b60405180910390fd5b600160009054906101000a900473ffffffffffffffffffffffffffffffffffffffff1673ffffffffffffffffffffffffffffffffffffffff166108fc6002549081150290604051600060405180830381858888f193505050501580156107df573d6000803e3d6000fd5b50565b600a60003373ffffffffffffffffffffffffffffffffffffffff1673ffffffffffffffffffffffffffffffffffffffff16815260200190815260200160002060009054906101000a900460ff16610897576005339080600181540180825580915050600190039060005260206000200160009091909190916101000a81548173ffffffffffffffffffffffffffffffffffffffff021916908373ffffffffffffffffffffffffffffffffffffffff1602179055505b34600660008073ffffffffffffffffffffffffffffffffffffffff1673ffffffffffffffffffffffffffffffffffffffff16815260200190815260200160002060003373ffffffffffffffffffffffffffffffffffffffff1673ffffffffffffffffffffffffffffffffffffffff1681526020019081526020016000205461091f9190611333565b600660008073ffffffffffffffffffffffffffffffffffffffff1673ffffffffffffffffffffffffffffffffffffffff16815260200190815260200160002060003373ffffffffffffffffffffffffffffffffffffffff1673ffffffffffffffffffffffffffffffffffffffff1681526020019081526020016000208190555034600760008282546109b19190611333565b925050819055506001600960003373ffffffffffffffffffffffffffffffffffffffff1673ffffffffffffffffffffffffffffffffffffffff16815260200190815260200160002060006101000a81548160ff0219169083151502179055506001600a60003373ffffffffffffffffffffffffffffffffffffffff1673ffffffffffffffffffffffffffffffffffffffff16815260200190815260200160002060006101000a81548160ff0219169083151502179055503373ffffffffffffffffffffffffffffffffffffffff16600073ffffffffffffffffffffffffffffffffffffffff167f63602d0ecc7b3a0ef7ff1a116e23056662d64280355ba8031b6d0d767c4b445834600660008073ffffffffffffffffffffffffffffffffffffffff1673ffffffffffffffffffffffffffffffffffffffff16815260200190815260200160002060003373ffffffffffffffffffffffffffffffffffffffff1673ffffffffffffffffffffffffffffffffffffffff16815260200190815260200160002054604051610b449291906112de565b60405180910390a3600460009054906101000a900473ffffffffffffffffffffffffffffffffffffffff1673ffffffffffffffffffffffffffffffffffffffff16634e6ec24733346040518363ffffffff1660e01b8152600401610ba9929190611204565b600060405180830381600087803b158015610bc357600080fd5b505af1158015610bd7573d6000803e3d6000fd5b505050503373ffffffffffffffffffffffffffffffffffffffff167fc18b5b3cb7658b312e1f7a46cb272bffb6c5f32470851d260a998587c5eb77253442604051610c239291906112de565b60405180910390a2565b6000600960003373ffffffffffffffffffffffffffffffffffffffff1673ffffffffffffffffffffffffffffffffffffffff16815260200190815260200160002060009054906101000a900460ff16905090565b60011515600960003373ffffffffffffffffffffffffffffffffffffffff1673ffffffffffffffffffffffffffffffffffffffff16815260200190815260200160002060009054906101000a900460ff16151514610d14576040517f08c379a0000000000000000000000000000000000000000000000000000000008152600401610d0b90611283565b60405180910390fd5b600073ffffffffffffffffffffffffffffffffffffffff163373ffffffffffffffffffffffffffffffffffffffff1614610d83576040517f08c379a0000000000000000000000000000000000000000000000000000000008152600401610d7a90611263565b60405180910390fd5b6000610d8e33610e9a565b90503373ffffffffffffffffffffffffffffffffffffffff166108fc829081150290604051600060405180830381858888f19350505050158015610dd6573d6000803e3d6000fd5b503373ffffffffffffffffffffffffffffffffffffffff167f1f89f96333d3133000ee447473151fa9606543368f02271c9d95ae14f13bcc6782604051610e1d91906112c3565b60405180910390a250565b600a6020528060005260406000206000915054906101000a900460ff1681565b600160149054906101000a900460ff1681565b60058181548110610e6b57600080fd5b906000526020600020016000915054906101000a900473ffffffffffffffffffffffffffffffffffffffff1681565b600080600660008073ffffffffffffffffffffffffffffffffffffffff1673ffffffffffffffffffffffffffffffffffffffff16815260200190815260200160002060008473ffffffffffffffffffffffffffffffffffffffff1673ffffffffffffffffffffffffffffffffffffffff1681526020019081526020016000205490506103e8600160149054906101000a900460ff1660ff16600354610f3f91906113ba565b610f499190611389565b6002819055506000600254600354610f619190611414565b90506000600754606484610f7591906113ba565b610f7f9190611389565b905060648282610f8f91906113ba565b610f999190611389565b600860008773ffffffffffffffffffffffffffffffffffffffff1673ffffffffffffffffffffffffffffffffffffffff16815260200190815260200160002081905550600860008673ffffffffffffffffffffffffffffffffffffffff1673ffffffffffffffffffffffffffffffffffffffff168152602001908152602001600020549350505050919050565b6000813590506110358161151f565b92915050565b60008135905061104a81611536565b92915050565b60006020828403121561106257600080fd5b600061107084828501611026565b91505092915050565b6000806040838503121561108c57600080fd5b600061109a85828601611026565b92505060206110ab85828601611026565b9150509250929050565b6000602082840312156110c757600080fd5b60006110d58482850161103b565b91505092915050565b6110e781611448565b82525050565b6110f68161145a565b82525050565b6111058161149d565b82525050565b6000611118600f83611322565b91507f496e76616c6964206164647265737300000000000000000000000000000000006000830152602082019050919050565b6000611158600f83611322565b91507f4e6f207374616b656420457468657200000000000000000000000000000000006000830152602082019050919050565b6000611198600f83611322565b91507f4e6f2066656520746f20636c61696d00000000000000000000000000000000006000830152602082019050919050565b6111d481611486565b82525050565b6111e381611490565b82525050565b60006020820190506111fe60008301846110de565b92915050565b600060408201905061121960008301856110de565b61122660208301846111cb565b9392505050565b600060208201905061124260008301846110ed565b92915050565b600060208201905061125d60008301846110fc565b92915050565b6000602082019050818103600083015261127c8161110b565b9050919050565b6000602082019050818103600083015261129c8161114b565b9050919050565b600060208201905081810360008301526112bc8161118b565b9050919050565b60006020820190506112d860008301846111cb565b92915050565b60006040820190506112f360008301856111cb565b61130060208301846111cb565b9392505050565b600060208201905061131c60008301846111da565b92915050565b600082825260208201905092915050565b600061133e82611486565b915061134983611486565b9250827fffffffffffffffffffffffffffffffffffffffffffffffffffffffffffffffff0382111561137e5761137d6114c1565b5b828201905092915050565b600061139482611486565b915061139f83611486565b9250826113af576113ae6114f0565b5b828204905092915050565b60006113c582611486565b91506113d083611486565b9250817fffffffffffffffffffffffffffffffffffffffffffffffffffffffffffffffff0483118215151615611409576114086114c1565b5b828202905092915050565b600061141f82611486565b915061142a83611486565b92508282101561143d5761143c6114c1565b5b828203905092915050565b600061145382611466565b9050919050565b60008115159050919050565b600073ffffffffffffffffffffffffffffffffffffffff82169050919050565b6000819050919050565b600060ff82169050919050565b60006114a8826114af565b9050919050565b60006114ba82611466565b9050919050565b7f4e487b7100000000000000000000000000000000000000000000000000000000600052601160045260246000fd5b7f4e487b7100000000000000000000000000000000000000000000000000000000600052601260045260246000fd5b61152881611448565b811461153357600080fd5b50565b61153f81611486565b811461154a57600080fd5b5056fea2646970667358221220515c8e7339916a0cf46fae1969922ecaa99ea889f71d35c8fc2fe688356667a264736f6c63430008000033",
  "immutableReferences": {},
  "source": "// SPDX-License-Identifier: MIT\r\npragma solidity ^0.8.0;\r\n\r\nimport \"./SLETH.sol\";\r\n\r\ncontract Staking{\r\n    \r\n    address public owner;\r\n    address public devAddress;\r\n    uint8 public fee = 75; //7.5% fees\r\n    uint256 private rewardFee;\r\n    uint256 private totalReward;\r\n    address constant public ETHER = address(0);\r\n    uint256 constant public DEPOSIT_SIZE = 32 ether;\r\n    SLETH public slETH;\r\n    \r\n    //storing stakers addresses\r\n    address[] public stakers;\r\n    mapping(address => mapping(address=> uint256)) public stakingBalance;\r\n    uint256 public stakedAmount;\r\n    mapping(address => uint256) public rewardBalance;\r\n    mapping(address => bool) public isStaking;\r\n    mapping(address => bool) public hasStaked;\r\n    \r\n    //events\r\n    event Stake(address indexed token, address indexed user, uint256 amount, uint256 balance);\r\n    event TransferSeth(address indexed user, uint256 amount, uint timestamp);\r\n    event Withdraw(address indexed token, address indexed user, uint256 amount, uint256 balance);\r\n    event ClaimRewards(address indexed user, uint256 amount);\r\n\r\n    constructor( address _owner, address _devAddress, SLETH _slETH ){\r\n        owner = _owner;\r\n        devAddress = _devAddress;\r\n        slETH = _slETH;\r\n    }\r\n\r\n    modifier onlyOwner {\r\n        require(msg.sender == owner);\r\n        _;\r\n    }\r\n\r\n    function stakeETHER() payable public{\r\n        //require(_token == ETHER, \"Only depoist ETH\");\r\n        if(!hasStaked[msg.sender]){\r\n            stakers.push(msg.sender);\r\n        }\r\n        stakingBalance[ETHER][msg.sender] = stakingBalance[ETHER][msg.sender]+(msg.value);\r\n        stakedAmount += msg.value;\r\n        isStaking[msg.sender] = true;\r\n        hasStaked[msg.sender] = true;\r\n        emit Stake(ETHER, msg.sender, msg.value, stakingBalance[ETHER][msg.sender]);\r\n        slETH._mint(msg.sender, msg.value);\r\n        emit TransferSeth(msg.sender, msg.value, block.timestamp);\r\n    }\r\n\r\n    /*This is for users only. Users can call this function to withdraw their staked eth.\r\n      Commenting out this function for now. We would have to decide whether we want to give user slETH or just give them options to withdraw. \r\n      We can not have both these options. Otherwise, user will be able to trade their slETH to eth and claim the eth they staked as well.\r\n    */\r\n    // function userWithdraw(uint256 _amount) public {\r\n    //     require(isStaking[msg.sender] == true, \"No Eth to withdraw\");\r\n    //     require(stakingBalance[ETHER][msg.sender]>=_amount);\r\n    //     stakingBalance[ETHER][msg.sender] =stakingBalance[ETHER][msg.sender]-(_amount);\r\n    //     payable(msg.sender).transfer(_amount);\r\n    //     isStaking[msg.sender] == false;\r\n    //     emit Withdraw(ETHER, msg.sender, _amount, stakingBalance[ETHER][msg.sender]); \r\n    // }\r\n\r\n    /* setReward will be called by the owner only once a day to update the total reward */\r\n    function setReward(uint256 _reward) public onlyOwner {\r\n            totalReward = _reward;\r\n    }\r\n\r\n    /* claimReward will be called by the user. We can set the condition where owner are not able to call this function.\r\n        further info is needed by the client*/\r\n    function claimReward() public{\r\n        require(isStaking[msg.sender]==true, \"No staked Ether\");\r\n        require(msg.sender == address(0), \"Invalid address\");\r\n        uint256 rewardPerUser = calculateRewards(msg.sender);\r\n        payable(msg.sender).transfer(rewardPerUser);\r\n        emit ClaimRewards(msg.sender, rewardPerUser);\r\n\r\n    }\r\n\r\n    /* calculateRewards will calculate the user reward based on eth satked by the user/ total staked eth. */\r\n    function calculateRewards(address _user) internal returns(uint256) {\r\n        uint256 stakedEthByuser = stakingBalance[ETHER][_user];\r\n        rewardFee = (totalReward*fee)/1000;\r\n        uint256 netReward = totalReward-rewardFee;\r\n        uint256 allocationPerUser = (stakedEthByuser*100)/stakedAmount;\r\n        rewardBalance[_user] = (allocationPerUser*netReward)/100;\r\n        return rewardBalance[_user];\r\n    }\r\n\r\n    /* claimFee will be called by the owner only.\r\n       upon calling 7.5% reward fees will get transfered to dev address. Which we will set when depolying this contract  */\r\n    function claimFee() public onlyOwner {\r\n        require(rewardFee > 0, \"No fee to claim\");\r\n        payable(devAddress).transfer(rewardFee);\r\n    }\r\n\r\n    /*WithdrawEther can be only called by owner. This function will get only called if the total staked balance is equal\r\n      or more than discussed amount.\r\n    */\r\n    function withdrawEther(uint256 _amount) public onlyOwner{\r\n        payable(msg.sender).transfer(_amount);\r\n    }\r\n\r\n    function balanceOf(address _user) public view returns (uint256){\r\n        return stakingBalance[ETHER][_user];\r\n    }\r\n\r\n    function stillStaking() public view returns(bool){\r\n        return isStaking[msg.sender];\r\n    }\r\n}",
  "sourcePath": "/mnt/c/pr0/lightNodeContracts/contracts/Staking.sol",
  "compiler": {
    "name": "solc",
    "version": "0.8.0+commit.c7dfd78e.Emscripten.clang"
  },
  "schemaVersion": "3.2.5",
  "updatedAt": "2022-02-12T02:16:44.221Z",
  "networkType": "ethereum",
  "devdoc": {
    "kind": "dev",
    "methods": {},
    "version": 1
  },
  "userdoc": {
    "kind": "user",
    "methods": {},
    "version": 1
  }
}