{
  "contractName": "Staking",
  "abi": [
    {
      "inputs": [
        {
          "internalType": "address",
          "name": "_owner",
          "type": "address"
        }
      ],
      "stateMutability": "nonpayable",
      "type": "constructor"
    },
    {
      "anonymous": false,
      "inputs": [
        {
          "indexed": true,
          "internalType": "address",
          "name": "token",
          "type": "address"
        },
        {
          "indexed": true,
          "internalType": "address",
          "name": "user",
          "type": "address"
        },
        {
          "indexed": false,
          "internalType": "uint256",
          "name": "amount",
          "type": "uint256"
        },
        {
          "indexed": false,
          "internalType": "uint256",
          "name": "balance",
          "type": "uint256"
        }
      ],
      "name": "Stake",
      "type": "event"
    },
    {
      "anonymous": false,
      "inputs": [
        {
          "indexed": true,
          "internalType": "address",
          "name": "user",
          "type": "address"
        },
        {
          "indexed": false,
          "internalType": "uint256",
          "name": "amount",
          "type": "uint256"
        },
        {
          "indexed": false,
          "internalType": "uint256",
          "name": "timestamp",
          "type": "uint256"
        }
      ],
      "name": "TransferSeth",
      "type": "event"
    },
    {
      "anonymous": false,
      "inputs": [
        {
          "indexed": true,
          "internalType": "address",
          "name": "token",
          "type": "address"
        },
        {
          "indexed": true,
          "internalType": "address",
          "name": "user",
          "type": "address"
        },
        {
          "indexed": false,
          "internalType": "uint256",
          "name": "amount",
          "type": "uint256"
        },
        {
          "indexed": false,
          "internalType": "uint256",
          "name": "balance",
          "type": "uint256"
        }
      ],
      "name": "Withdraw",
      "type": "event"
    },
    {
      "inputs": [
        {
          "internalType": "address",
          "name": "",
          "type": "address"
        }
      ],
      "name": "isStaking",
      "outputs": [
        {
          "internalType": "bool",
          "name": "",
          "type": "bool"
        }
      ],
      "stateMutability": "view",
      "type": "function"
    },
    {
      "inputs": [],
      "name": "owner",
      "outputs": [
        {
          "internalType": "address",
          "name": "",
          "type": "address"
        }
      ],
      "stateMutability": "view",
      "type": "function"
    },
    {
      "inputs": [
        {
          "internalType": "address",
          "name": "",
          "type": "address"
        }
      ],
      "name": "rewardBalance",
      "outputs": [
        {
          "internalType": "uint256",
          "name": "",
          "type": "uint256"
        }
      ],
      "stateMutability": "view",
      "type": "function"
    },
    {
      "inputs": [],
      "name": "slETH",
      "outputs": [
        {
          "internalType": "contract SLETH",
          "name": "",
          "type": "address"
        }
      ],
      "stateMutability": "view",
      "type": "function"
    },
    {
      "inputs": [],
      "name": "stakedAmount",
      "outputs": [
        {
          "internalType": "uint256",
          "name": "",
          "type": "uint256"
        }
      ],
      "stateMutability": "view",
      "type": "function"
    },
    {
      "inputs": [
        {
          "internalType": "uint256",
          "name": "",
          "type": "uint256"
        }
      ],
      "name": "stakers",
      "outputs": [
        {
          "internalType": "address",
          "name": "",
          "type": "address"
        }
      ],
      "stateMutability": "view",
      "type": "function"
    },
    {
      "inputs": [
        {
          "internalType": "address",
          "name": "",
          "type": "address"
        },
        {
          "internalType": "address",
          "name": "",
          "type": "address"
        }
      ],
      "name": "stakingBalance",
      "outputs": [
        {
          "internalType": "uint256",
          "name": "",
          "type": "uint256"
        }
      ],
      "stateMutability": "view",
      "type": "function"
    },
    {
      "inputs": [
        {
          "internalType": "address",
          "name": "_token",
          "type": "address"
        },
        {
          "internalType": "uint256",
          "name": "_amount",
          "type": "uint256"
        }
      ],
      "name": "stakeETHER",
      "outputs": [],
      "stateMutability": "payable",
      "type": "function"
    },
    {
      "inputs": [
        {
          "internalType": "uint256",
          "name": "_amount",
          "type": "uint256"
        }
      ],
      "name": "withdrawEther",
      "outputs": [],
      "stateMutability": "nonpayable",
      "type": "function"
    },
    {
      "inputs": [
        {
          "internalType": "address",
          "name": "_user",
          "type": "address"
        }
      ],
      "name": "balanceOf",
      "outputs": [
        {
          "internalType": "uint256",
          "name": "",
          "type": "uint256"
        }
      ],
      "stateMutability": "view",
      "type": "function"
    },
    {
      "inputs": [],
      "name": "stillStaking",
      "outputs": [
        {
          "internalType": "bool",
          "name": "",
          "type": "bool"
        }
      ],
      "stateMutability": "view",
      "type": "function"
    }
  ],
  "bytecode": "0x608060405234801561001057600080fd5b50604051610e82380380610e828339818101604052810190610032919061008d565b806000806101000a81548173ffffffffffffffffffffffffffffffffffffffff021916908373ffffffffffffffffffffffffffffffffffffffff160217905550506100ff565b600081519050610087816100e8565b92915050565b60006020828403121561009f57600080fd5b60006100ad84828501610078565b91505092915050565b60006100c1826100c8565b9050919050565b600073ffffffffffffffffffffffffffffffffffffffff82169050919050565b6100f1816100b6565b81146100fc57600080fd5b50565b610d748061010e6000396000f3fe60806040526004361061009c5760003560e01c806367b40cf71161006457806367b40cf7146101795780636f49712b146101b657806370a08231146101f35780638da5cb5b146102305780639e10a6ee1461025b578063fd5e6dd1146102865761009c565b806329161a00146100a1578063373d6132146100de5780633bed33ce146101095780634b66d2f61461013257806361d5c23b1461014e575b600080fd5b3480156100ad57600080fd5b506100c860048036038101906100c391906109b3565b6102c3565b6040516100d59190610bca565b60405180910390f35b3480156100ea57600080fd5b506100f36102e8565b6040516101009190610bca565b60405180910390f35b34801561011557600080fd5b50610130600480360381019061012b9190610a2b565b6102ee565b005b61014c600480360381019061014791906109ef565b6103b0565b005b34801561015a57600080fd5b506101636107c5565b6040516101709190610b6f565b60405180910390f35b34801561018557600080fd5b506101a0600480360381019061019b919061098a565b6107eb565b6040516101ad9190610bca565b60405180910390f35b3480156101c257600080fd5b506101dd60048036038101906101d8919061098a565b610803565b6040516101ea9190610b54565b60405180910390f35b3480156101ff57600080fd5b5061021a6004803603810190610215919061098a565b610823565b6040516102279190610bca565b60405180910390f35b34801561023c57600080fd5b506102456108a9565b6040516102529190610b10565b60405180910390f35b34801561026757600080fd5b506102706108cd565b60405161027d9190610b54565b60405180910390f35b34801561029257600080fd5b506102ad60048036038101906102a89190610a2b565b610921565b6040516102ba9190610b10565b60405180910390f35b6003602052816000526040600020602052806000526040600020600091509150505481565b60045481565b60008054906101000a900473ffffffffffffffffffffffffffffffffffffffff1673ffffffffffffffffffffffffffffffffffffffff163373ffffffffffffffffffffffffffffffffffffffff161461034657600080fd5b60008054906101000a900473ffffffffffffffffffffffffffffffffffffffff1673ffffffffffffffffffffffffffffffffffffffff166108fc829081150290604051600060405180830381858888f193505050501580156103ac573d6000803e3d6000fd5b5050565b600073ffffffffffffffffffffffffffffffffffffffff168273ffffffffffffffffffffffffffffffffffffffff161461041f576040517f08c379a000000000000000000000000000000000000000000000000000000000815260040161041690610b8a565b60405180910390fd5b80600360008473ffffffffffffffffffffffffffffffffffffffff1673ffffffffffffffffffffffffffffffffffffffff16815260200190815260200160002060003373ffffffffffffffffffffffffffffffffffffffff1673ffffffffffffffffffffffffffffffffffffffff1681526020019081526020016000205410156104de576040517f08c379a00000000000000000000000000000000000000000000000000000000081526004016104d590610baa565b60405180910390fd5b80600360008473ffffffffffffffffffffffffffffffffffffffff1673ffffffffffffffffffffffffffffffffffffffff16815260200190815260200160002060003373ffffffffffffffffffffffffffffffffffffffff1673ffffffffffffffffffffffffffffffffffffffff168152602001908152602001600020546105669190610c1f565b600360008473ffffffffffffffffffffffffffffffffffffffff1673ffffffffffffffffffffffffffffffffffffffff16815260200190815260200160002060003373ffffffffffffffffffffffffffffffffffffffff1673ffffffffffffffffffffffffffffffffffffffff1681526020019081526020016000208190555060011515600660003373ffffffffffffffffffffffffffffffffffffffff1673ffffffffffffffffffffffffffffffffffffffff16815260200190815260200160002060009054906101000a9050505080600460008282546106489190610c1f565b92505081905550600160009054906101000a900473ffffffffffffffffffffffffffffffffffffffff1673ffffffffffffffffffffffffffffffffffffffff166340c10f1933836040518363ffffffff1660e01b81526004016106ac929190610b2b565b600060405180830381600087803b1580156106c657600080fd5b505af11580156106da573d6000803e3d6000fd5b505050503373ffffffffffffffffffffffffffffffffffffffff168273ffffffffffffffffffffffffffffffffffffffff167f63602d0ecc7b3a0ef7ff1a116e23056662d64280355ba8031b6d0d767c4b445883600360008773ffffffffffffffffffffffffffffffffffffffff1673ffffffffffffffffffffffffffffffffffffffff16815260200190815260200160002060003373ffffffffffffffffffffffffffffffffffffffff1673ffffffffffffffffffffffffffffffffffffffff168152602001908152602001600020546040516107b9929190610be5565b60405180910390a35050565b600160009054906101000a900473ffffffffffffffffffffffffffffffffffffffff1681565b60056020528060005260406000206000915090505481565b60066020528060005260406000206000915054906101000a900460ff1681565b6000600360008073ffffffffffffffffffffffffffffffffffffffff1673ffffffffffffffffffffffffffffffffffffffff16815260200190815260200160002060008373ffffffffffffffffffffffffffffffffffffffff1673ffffffffffffffffffffffffffffffffffffffff168152602001908152602001600020549050919050565b60008054906101000a900473ffffffffffffffffffffffffffffffffffffffff1681565b6000600660003373ffffffffffffffffffffffffffffffffffffffff1673ffffffffffffffffffffffffffffffffffffffff16815260200190815260200160002060009054906101000a900460ff16905090565b6002818154811061093157600080fd5b906000526020600020016000915054906101000a900473ffffffffffffffffffffffffffffffffffffffff1681565b60008135905061096f81610d10565b92915050565b60008135905061098481610d27565b92915050565b60006020828403121561099c57600080fd5b60006109aa84828501610960565b91505092915050565b600080604083850312156109c657600080fd5b60006109d485828601610960565b92505060206109e585828601610960565b9150509250929050565b60008060408385031215610a0257600080fd5b6000610a1085828601610960565b9250506020610a2185828601610975565b9150509250929050565b600060208284031215610a3d57600080fd5b6000610a4b84828501610975565b91505092915050565b610a5d81610c75565b82525050565b610a6c81610c87565b82525050565b610a7b81610cbd565b82525050565b6000610a8e600d83610c0e565b91507f496e76616c696420546f6b656e000000000000000000000000000000000000006000830152602082019050919050565b6000610ace601083610c0e565b91507f4e6f7420656e6f756768204574686572000000000000000000000000000000006000830152602082019050919050565b610b0a81610cb3565b82525050565b6000602082019050610b256000830184610a54565b92915050565b6000604082019050610b406000830185610a54565b610b4d6020830184610b01565b9392505050565b6000602082019050610b696000830184610a63565b92915050565b6000602082019050610b846000830184610a72565b92915050565b60006020820190508181036000830152610ba381610a81565b9050919050565b60006020820190508181036000830152610bc381610ac1565b9050919050565b6000602082019050610bdf6000830184610b01565b92915050565b6000604082019050610bfa6000830185610b01565b610c076020830184610b01565b9392505050565b600082825260208201905092915050565b6000610c2a82610cb3565b9150610c3583610cb3565b9250827fffffffffffffffffffffffffffffffffffffffffffffffffffffffffffffffff03821115610c6a57610c69610ce1565b5b828201905092915050565b6000610c8082610c93565b9050919050565b60008115159050919050565b600073ffffffffffffffffffffffffffffffffffffffff82169050919050565b6000819050919050565b6000610cc882610ccf565b9050919050565b6000610cda82610c93565b9050919050565b7f4e487b7100000000000000000000000000000000000000000000000000000000600052601160045260246000fd5b610d1981610c75565b8114610d2457600080fd5b50565b610d3081610cb3565b8114610d3b57600080fd5b5056fea26469706673582212201f5b2aced4c1a5e4bb1a2b970308f93786e9c7ac5718fea5363061ffc797381464736f6c63430008000033",
  "immutableReferences": {},
  "source": "// SPDX-License-Identifier: MIT\r\npragma solidity ^0.8.0;\r\n\r\nimport \"./SLETH.sol\";\r\n\r\ncontract Staking{\r\n    \r\n    address public owner;\r\n    address constant ETHER = address(0);\r\n    SLETH public slETH;\r\n    \r\n    //storing stakers addresses\r\n    address[] public stakers;\r\n    mapping(address => mapping(address=> uint256)) public stakingBalance;\r\n    uint256 public stakedAmount;\r\n    mapping(address => uint256) public rewardBalance;\r\n    mapping(address => bool) public  isStaking;\r\n    \r\n    //events\r\n    event Stake(address indexed token, address indexed user, uint256 amount, uint256 balance);\r\n    event TransferSeth(address indexed user, uint256 amount, uint timestamp);\r\n    event Withdraw(address indexed token, address indexed user, uint256 amount, uint256 balance);\r\n\r\n    constructor( address _owner/*, SLETH _slETH*/ ){\r\n        owner = _owner;\r\n        //slETH = _slETH;\r\n    }\r\n\r\n    modifier onlyOwner {\r\n        require(msg.sender == owner);\r\n        _;\r\n    }\r\n\r\n    function stakeETHER(address _token, uint256 _amount) payable public{\r\n        require(_token == ETHER, \"Invalid Token\");\r\n        require(stakingBalance[_token][msg.sender]>= _amount, \"Not enough Ether\");\r\n        stakingBalance[_token][msg.sender] = stakingBalance[_token][msg.sender]+(_amount);\r\n        isStaking[msg.sender] == true;\r\n        stakedAmount += _amount;\r\n        slETH.mint(msg.sender, _amount);\r\n        emit Stake(_token, msg.sender, _amount, stakingBalance[_token][msg.sender] );\r\n    }\r\n\r\n    /*This is for users only. Users can call this function to withdraw their staked eth.\r\n      Commenting out this function for now. We would have to decide whether we want to give user slETH or just give them options to withdraw. \r\n      We can not have both these options. Otherwise, user will be able to trade their slETH to eth and claim the eth they staked as well.\r\n    */\r\n    // function userWithdraw(uint256 _amount) public {\r\n    //     require(isStaking[msg.sender] == true, \"No Eth to withdraw\");\r\n    //     require(stakingBalance[ETHER][msg.sender]>=_amount);\r\n    //     stakingBalance[ETHER][msg.sender] =stakingBalance[ETHER][msg.sender]-(_amount);\r\n    //     payable(msg.sender).transfer(_amount);\r\n    //     isStaking[msg.sender] == false;\r\n    //     emit Withdraw(ETHER, msg.sender, _amount, stakingBalance[ETHER][msg.sender]); \r\n    // }\r\n\r\n    function withdrawEther(uint256 _amount) public onlyOwner{\r\n        payable(owner).transfer(_amount);\r\n    }\r\n\r\n    function balanceOf(address _user) public view returns (uint256){\r\n        return stakingBalance[ETHER][_user];\r\n    }\r\n\r\n    function stillStaking() public view returns(bool){\r\n        return isStaking[msg.sender];\r\n    }\r\n}",
  "sourcePath": "/mnt/c/pr0/lightNodeContracts/contracts/Staking.sol",
  "compiler": {
    "name": "solc",
    "version": "0.8.0+commit.c7dfd78e.Emscripten.clang"
  },
  "schemaVersion": "3.2.5",
  "updatedAt": "2022-01-27T04:40:52.163Z",
  "devdoc": {
    "kind": "dev",
    "methods": {},
    "version": 1
  },
  "userdoc": {
    "kind": "user",
    "methods": {},
    "version": 1
  }
}