{
  "contractName": "Staking",
  "abi": [
    {
      "inputs": [
        {
          "internalType": "address",
          "name": "_owner",
          "type": "address"
        },
        {
          "internalType": "address",
          "name": "_devAddress",
          "type": "address"
        },
        {
          "internalType": "contract SLETH",
          "name": "_slETH",
          "type": "address"
        }
      ],
      "stateMutability": "nonpayable",
      "type": "constructor"
    },
    {
      "anonymous": false,
      "inputs": [
        {
          "indexed": true,
          "internalType": "address",
          "name": "user",
          "type": "address"
        },
        {
          "indexed": false,
          "internalType": "uint256",
          "name": "amount",
          "type": "uint256"
        }
      ],
      "name": "ClaimRewards",
      "type": "event"
    },
    {
      "anonymous": false,
      "inputs": [
        {
          "indexed": true,
          "internalType": "address",
          "name": "token",
          "type": "address"
        },
        {
          "indexed": true,
          "internalType": "address",
          "name": "user",
          "type": "address"
        },
        {
          "indexed": false,
          "internalType": "uint256",
          "name": "amount",
          "type": "uint256"
        },
        {
          "indexed": false,
          "internalType": "uint256",
          "name": "balance",
          "type": "uint256"
        }
      ],
      "name": "Stake",
      "type": "event"
    },
    {
      "anonymous": false,
      "inputs": [
        {
          "indexed": true,
          "internalType": "address",
          "name": "user",
          "type": "address"
        },
        {
          "indexed": false,
          "internalType": "uint256",
          "name": "amount",
          "type": "uint256"
        },
        {
          "indexed": false,
          "internalType": "uint256",
          "name": "timestamp",
          "type": "uint256"
        }
      ],
      "name": "TransferSleth",
      "type": "event"
    },
    {
      "anonymous": false,
      "inputs": [
        {
          "indexed": true,
          "internalType": "address",
          "name": "token",
          "type": "address"
        },
        {
          "indexed": true,
          "internalType": "address",
          "name": "user",
          "type": "address"
        },
        {
          "indexed": false,
          "internalType": "uint256",
          "name": "amount",
          "type": "uint256"
        },
        {
          "indexed": false,
          "internalType": "uint256",
          "name": "balance",
          "type": "uint256"
        }
      ],
      "name": "Withdraw",
      "type": "event"
    },
    {
      "inputs": [],
      "name": "DEPOSIT_SIZE",
      "outputs": [
        {
          "internalType": "uint256",
          "name": "",
          "type": "uint256"
        }
      ],
      "stateMutability": "view",
      "type": "function",
      "constant": true
    },
    {
      "inputs": [],
      "name": "ETHER",
      "outputs": [
        {
          "internalType": "address",
          "name": "",
          "type": "address"
        }
      ],
      "stateMutability": "view",
      "type": "function",
      "constant": true
    },
    {
      "inputs": [],
      "name": "devAddress",
      "outputs": [
        {
          "internalType": "address",
          "name": "",
          "type": "address"
        }
      ],
      "stateMutability": "view",
      "type": "function",
      "constant": true
    },
    {
      "inputs": [],
      "name": "fee",
      "outputs": [
        {
          "internalType": "uint8",
          "name": "",
          "type": "uint8"
        }
      ],
      "stateMutability": "view",
      "type": "function",
      "constant": true
    },
    {
      "inputs": [
        {
          "internalType": "address",
          "name": "",
          "type": "address"
        }
      ],
      "name": "feeByUser",
      "outputs": [
        {
          "internalType": "uint256",
          "name": "",
          "type": "uint256"
        }
      ],
      "stateMutability": "view",
      "type": "function",
      "constant": true
    },
    {
      "inputs": [
        {
          "internalType": "address",
          "name": "",
          "type": "address"
        }
      ],
      "name": "hasStaked",
      "outputs": [
        {
          "internalType": "bool",
          "name": "",
          "type": "bool"
        }
      ],
      "stateMutability": "view",
      "type": "function",
      "constant": true
    },
    {
      "inputs": [
        {
          "internalType": "address",
          "name": "",
          "type": "address"
        }
      ],
      "name": "isStaking",
      "outputs": [
        {
          "internalType": "bool",
          "name": "",
          "type": "bool"
        }
      ],
      "stateMutability": "view",
      "type": "function",
      "constant": true
    },
    {
      "inputs": [],
      "name": "owner",
      "outputs": [
        {
          "internalType": "address",
          "name": "",
          "type": "address"
        }
      ],
      "stateMutability": "view",
      "type": "function",
      "constant": true
    },
    {
      "inputs": [
        {
          "internalType": "address",
          "name": "",
          "type": "address"
        }
      ],
      "name": "rewardBalance",
      "outputs": [
        {
          "internalType": "uint256",
          "name": "",
          "type": "uint256"
        }
      ],
      "stateMutability": "view",
      "type": "function",
      "constant": true
    },
    {
      "inputs": [],
      "name": "rewardFee",
      "outputs": [
        {
          "internalType": "uint256",
          "name": "",
          "type": "uint256"
        }
      ],
      "stateMutability": "view",
      "type": "function",
      "constant": true
    },
    {
      "inputs": [],
      "name": "slETH",
      "outputs": [
        {
          "internalType": "contract SLETH",
          "name": "",
          "type": "address"
        }
      ],
      "stateMutability": "view",
      "type": "function",
      "constant": true
    },
    {
      "inputs": [],
      "name": "stakedAmount",
      "outputs": [
        {
          "internalType": "uint256",
          "name": "",
          "type": "uint256"
        }
      ],
      "stateMutability": "view",
      "type": "function",
      "constant": true
    },
    {
      "inputs": [
        {
          "internalType": "uint256",
          "name": "",
          "type": "uint256"
        }
      ],
      "name": "stakers",
      "outputs": [
        {
          "internalType": "address",
          "name": "",
          "type": "address"
        }
      ],
      "stateMutability": "view",
      "type": "function",
      "constant": true
    },
    {
      "inputs": [
        {
          "internalType": "address",
          "name": "",
          "type": "address"
        },
        {
          "internalType": "address",
          "name": "",
          "type": "address"
        }
      ],
      "name": "stakingBalance",
      "outputs": [
        {
          "internalType": "uint256",
          "name": "",
          "type": "uint256"
        }
      ],
      "stateMutability": "view",
      "type": "function",
      "constant": true
    },
    {
      "inputs": [],
      "name": "totalReward",
      "outputs": [
        {
          "internalType": "uint256",
          "name": "",
          "type": "uint256"
        }
      ],
      "stateMutability": "view",
      "type": "function",
      "constant": true
    },
    {
      "inputs": [],
      "name": "stakeETHER",
      "outputs": [],
      "stateMutability": "payable",
      "type": "function",
      "payable": true
    },
    {
      "inputs": [
        {
          "internalType": "uint256",
          "name": "_reward",
          "type": "uint256"
        }
      ],
      "name": "setReward",
      "outputs": [],
      "stateMutability": "nonpayable",
      "type": "function"
    },
    {
      "inputs": [],
      "name": "claimReward",
      "outputs": [],
      "stateMutability": "nonpayable",
      "type": "function"
    },
    {
      "inputs": [
        {
          "internalType": "address",
          "name": "_user",
          "type": "address"
        }
      ],
      "name": "calculateRewards",
      "outputs": [
        {
          "internalType": "uint256",
          "name": "",
          "type": "uint256"
        }
      ],
      "stateMutability": "nonpayable",
      "type": "function"
    },
    {
      "inputs": [],
      "name": "claimFee",
      "outputs": [],
      "stateMutability": "nonpayable",
      "type": "function"
    },
    {
      "inputs": [
        {
          "internalType": "uint256",
          "name": "_amount",
          "type": "uint256"
        }
      ],
      "name": "withdrawEther",
      "outputs": [],
      "stateMutability": "nonpayable",
      "type": "function"
    },
    {
      "inputs": [
        {
          "internalType": "address",
          "name": "_user",
          "type": "address"
        }
      ],
      "name": "balanceOf",
      "outputs": [
        {
          "internalType": "uint256",
          "name": "",
          "type": "uint256"
        }
      ],
      "stateMutability": "view",
      "type": "function",
      "constant": true
    },
    {
      "inputs": [],
      "name": "stillStaking",
      "outputs": [
        {
          "internalType": "bool",
          "name": "",
          "type": "bool"
        }
      ],
      "stateMutability": "view",
      "type": "function",
      "constant": true
    }
  ],
  "bytecode": "0x6080604052604b600160146101000a81548160ff021916908360ff1602179055503480156200002d57600080fd5b50604051620019f9380380620019f983398181016040528101906200005391906200014c565b826000806101000a81548173ffffffffffffffffffffffffffffffffffffffff021916908373ffffffffffffffffffffffffffffffffffffffff16021790555081600160006101000a81548173ffffffffffffffffffffffffffffffffffffffff021916908373ffffffffffffffffffffffffffffffffffffffff16021790555080600460006101000a81548173ffffffffffffffffffffffffffffffffffffffff021916908373ffffffffffffffffffffffffffffffffffffffff1602179055505050506200021e565b6000815190506200012f81620001ea565b92915050565b600081519050620001468162000204565b92915050565b6000806000606084860312156200016257600080fd5b600062000172868287016200011e565b935050602062000185868287016200011e565b9250506040620001988682870162000135565b9150509250925092565b6000620001af82620001ca565b9050919050565b6000620001c382620001a2565b9050919050565b600073ffffffffffffffffffffffffffffffffffffffff82169050919050565b620001f581620001a2565b81146200020157600080fd5b50565b6200020f81620001b6565b81146200021b57600080fd5b50565b6117cb806200022e6000396000f3fe6080604052600436106101405760003560e01c806370a08231116100b65780639e10a6ee1161006f5780639e10a6ee14610441578063b88a802f1461046c578063c93c8f3414610483578063ddca3f43146104c0578063f73ad9d6146104eb578063fd5e6dd11461052857610140565b806370a0823114610362578063750142e61461039f5780638b424267146103ca5780638da5cb5b146103f557806399d32fc4146104205780639ca628811461043757610140565b80633bed33ce116101085780633bed33ce1461022c57806342cb1fbc1461025557806361d5c23b1461028057806364ab8675146102ab57806367b40cf7146102e85780636f49712b1461032557610140565b806329161a0014610145578063293be4561461018257806336bf3325146101ab578063373d6132146101d65780633ad10ef614610201575b600080fd5b34801561015157600080fd5b5061016c60048036038101906101679190611261565b610565565b604051610179919061150b565b60405180910390f35b34801561018e57600080fd5b506101a960048036038101906101a4919061129d565b61058a565b005b3480156101b757600080fd5b506101c06105ec565b6040516101cd919061150b565b60405180910390f35b3480156101e257600080fd5b506101eb6105f9565b6040516101f8919061150b565b60405180910390f35b34801561020d57600080fd5b506102166105ff565b6040516102239190611411565b60405180910390f35b34801561023857600080fd5b50610253600480360381019061024e919061129d565b610625565b005b34801561026157600080fd5b5061026a6106c7565b6040516102779190611411565b60405180910390f35b34801561028c57600080fd5b506102956106cc565b6040516102a29190611470565b60405180910390f35b3480156102b757600080fd5b506102d260048036038101906102cd9190611238565b6106f2565b6040516102df919061150b565b60405180910390f35b3480156102f457600080fd5b5061030f600480360381019061030a9190611238565b610903565b60405161031c919061150b565b60405180910390f35b34801561033157600080fd5b5061034c60048036038101906103479190611238565b61091b565b6040516103599190611455565b60405180910390f35b34801561036e57600080fd5b5061038960048036038101906103849190611238565b61093b565b604051610396919061150b565b60405180910390f35b3480156103ab57600080fd5b506103b46109c1565b6040516103c1919061150b565b60405180910390f35b3480156103d657600080fd5b506103df6109c7565b6040516103ec919061150b565b60405180910390f35b34801561040157600080fd5b5061040a6109cd565b6040516104179190611411565b60405180910390f35b34801561042c57600080fd5b506104356109f1565b005b61043f610afb565b005b34801561044d57600080fd5b50610456610f89565b6040516104639190611455565b60405180910390f35b34801561047857600080fd5b50610481610fdd565b005b34801561048f57600080fd5b506104aa60048036038101906104a59190611238565b611184565b6040516104b79190611455565b60405180910390f35b3480156104cc57600080fd5b506104d56111a4565b6040516104e2919061154f565b60405180910390f35b3480156104f757600080fd5b50610512600480360381019061050d9190611238565b6111b7565b60405161051f919061150b565b60405180910390f35b34801561053457600080fd5b5061054f600480360381019061054a919061129d565b6111cf565b60405161055c9190611411565b60405180910390f35b6006602052816000526040600020602052806000526040600020600091509150505481565b60008054906101000a900473ffffffffffffffffffffffffffffffffffffffff1673ffffffffffffffffffffffffffffffffffffffff163373ffffffffffffffffffffffffffffffffffffffff16146105e257600080fd5b8060038190555050565b6801bc16d674ec80000081565b60075481565b600160009054906101000a900473ffffffffffffffffffffffffffffffffffffffff1681565b60008054906101000a900473ffffffffffffffffffffffffffffffffffffffff1673ffffffffffffffffffffffffffffffffffffffff163373ffffffffffffffffffffffffffffffffffffffff161461067d57600080fd5b3373ffffffffffffffffffffffffffffffffffffffff166108fc829081150290604051600060405180830381858888f193505050501580156106c3573d6000803e3d6000fd5b5050565b600081565b600460009054906101000a900473ffffffffffffffffffffffffffffffffffffffff1681565b600080600660008073ffffffffffffffffffffffffffffffffffffffff1673ffffffffffffffffffffffffffffffffffffffff16815260200190815260200160002060008473ffffffffffffffffffffffffffffffffffffffff1673ffffffffffffffffffffffffffffffffffffffff168152602001908152602001600020549050600060646007548361078691906115d1565b6107909190611602565b90506000600354826107a29190611602565b90506103e8600160149054906101000a900460ff1660ff16826107c59190611602565b6107cf91906115d1565b600860008773ffffffffffffffffffffffffffffffffffffffff1673ffffffffffffffffffffffffffffffffffffffff16815260200190815260200160002081905550600860008673ffffffffffffffffffffffffffffffffffffffff1673ffffffffffffffffffffffffffffffffffffffff168152602001908152602001600020548161085d919061165c565b600960008773ffffffffffffffffffffffffffffffffffffffff1673ffffffffffffffffffffffffffffffffffffffff1681526020019081526020016000208190555080600360008282546108b2919061165c565b92505081905550600960008673ffffffffffffffffffffffffffffffffffffffff1673ffffffffffffffffffffffffffffffffffffffff168152602001908152602001600020549350505050919050565b60096020528060005260406000206000915090505481565b600a6020528060005260406000206000915054906101000a900460ff1681565b6000600660008073ffffffffffffffffffffffffffffffffffffffff1673ffffffffffffffffffffffffffffffffffffffff16815260200190815260200160002060008373ffffffffffffffffffffffffffffffffffffffff1673ffffffffffffffffffffffffffffffffffffffff168152602001908152602001600020549050919050565b60035481565b60025481565b60008054906101000a900473ffffffffffffffffffffffffffffffffffffffff1681565b60008054906101000a900473ffffffffffffffffffffffffffffffffffffffff1673ffffffffffffffffffffffffffffffffffffffff163373ffffffffffffffffffffffffffffffffffffffff1614610a4957600080fd5b600060025411610a8e576040517f08c379a0000000000000000000000000000000000000000000000000000000008152600401610a85906114eb565b60405180910390fd5b600160009054906101000a900473ffffffffffffffffffffffffffffffffffffffff1673ffffffffffffffffffffffffffffffffffffffff166108fc6002549081150290604051600060405180830381858888f19350505050158015610af8573d6000803e3d6000fd5b50565b60003411610b3e576040517f08c379a0000000000000000000000000000000000000000000000000000000008152600401610b35906114ab565b60405180910390fd5b600b60003373ffffffffffffffffffffffffffffffffffffffff1673ffffffffffffffffffffffffffffffffffffffff16815260200190815260200160002060009054906101000a900460ff16610bf3576005339080600181540180825580915050600190039060005260206000200160009091909190916101000a81548173ffffffffffffffffffffffffffffffffffffffff021916908373ffffffffffffffffffffffffffffffffffffffff1602179055505b34600660008073ffffffffffffffffffffffffffffffffffffffff1673ffffffffffffffffffffffffffffffffffffffff16815260200190815260200160002060003373ffffffffffffffffffffffffffffffffffffffff1673ffffffffffffffffffffffffffffffffffffffff16815260200190815260200160002054610c7b919061157b565b600660008073ffffffffffffffffffffffffffffffffffffffff1673ffffffffffffffffffffffffffffffffffffffff16815260200190815260200160002060003373ffffffffffffffffffffffffffffffffffffffff1673ffffffffffffffffffffffffffffffffffffffff168152602001908152602001600020819055503460076000828254610d0d919061157b565b925050819055506001600a60003373ffffffffffffffffffffffffffffffffffffffff1673ffffffffffffffffffffffffffffffffffffffff16815260200190815260200160002060006101000a81548160ff0219169083151502179055506001600b60003373ffffffffffffffffffffffffffffffffffffffff1673ffffffffffffffffffffffffffffffffffffffff16815260200190815260200160002060006101000a81548160ff0219169083151502179055503373ffffffffffffffffffffffffffffffffffffffff16600073ffffffffffffffffffffffffffffffffffffffff167f63602d0ecc7b3a0ef7ff1a116e23056662d64280355ba8031b6d0d767c4b445834600660008073ffffffffffffffffffffffffffffffffffffffff1673ffffffffffffffffffffffffffffffffffffffff16815260200190815260200160002060003373ffffffffffffffffffffffffffffffffffffffff1673ffffffffffffffffffffffffffffffffffffffff16815260200190815260200160002054604051610ea0929190611526565b60405180910390a3600460009054906101000a900473ffffffffffffffffffffffffffffffffffffffff1673ffffffffffffffffffffffffffffffffffffffff16634e6ec24733346040518363ffffffff1660e01b8152600401610f0592919061142c565b600060405180830381600087803b158015610f1f57600080fd5b505af1158015610f33573d6000803e3d6000fd5b505050503373ffffffffffffffffffffffffffffffffffffffff167fc3754832cc92592bdf8f92637b93e8dd7c758b634e930024a7c2e3a5fc4c22773442604051610f7f929190611526565b60405180910390a2565b6000600a60003373ffffffffffffffffffffffffffffffffffffffff1673ffffffffffffffffffffffffffffffffffffffff16815260200190815260200160002060009054906101000a900460ff16905090565b60011515600a60003373ffffffffffffffffffffffffffffffffffffffff1673ffffffffffffffffffffffffffffffffffffffff16815260200190815260200160002060009054906101000a900460ff16151514611070576040517f08c379a0000000000000000000000000000000000000000000000000000000008152600401611067906114cb565b60405180910390fd5b600073ffffffffffffffffffffffffffffffffffffffff163373ffffffffffffffffffffffffffffffffffffffff16146110df576040517f08c379a00000000000000000000000000000000000000000000000000000000081526004016110d69061148b565b60405180910390fd5b60006110ea336106f2565b90503373ffffffffffffffffffffffffffffffffffffffff166108fc829081150290604051600060405180830381858888f19350505050158015611132573d6000803e3d6000fd5b503373ffffffffffffffffffffffffffffffffffffffff167f1f89f96333d3133000ee447473151fa9606543368f02271c9d95ae14f13bcc6782604051611179919061150b565b60405180910390a250565b600b6020528060005260406000206000915054906101000a900460ff1681565b600160149054906101000a900460ff1681565b60086020528060005260406000206000915090505481565b600581815481106111df57600080fd5b906000526020600020016000915054906101000a900473ffffffffffffffffffffffffffffffffffffffff1681565b60008135905061121d81611767565b92915050565b6000813590506112328161177e565b92915050565b60006020828403121561124a57600080fd5b60006112588482850161120e565b91505092915050565b6000806040838503121561127457600080fd5b60006112828582860161120e565b92505060206112938582860161120e565b9150509250929050565b6000602082840312156112af57600080fd5b60006112bd84828501611223565b91505092915050565b6112cf81611690565b82525050565b6112de816116a2565b82525050565b6112ed816116e5565b82525050565b6000611300600f8361156a565b91507f496e76616c6964206164647265737300000000000000000000000000000000006000830152602082019050919050565b600061134060158361156a565b91507f416d6f756e742063616e6e6f74206265207a65726f00000000000000000000006000830152602082019050919050565b6000611380600f8361156a565b91507f4e6f207374616b656420457468657200000000000000000000000000000000006000830152602082019050919050565b60006113c0600f8361156a565b91507f4e6f2066656520746f20636c61696d00000000000000000000000000000000006000830152602082019050919050565b6113fc816116ce565b82525050565b61140b816116d8565b82525050565b600060208201905061142660008301846112c6565b92915050565b600060408201905061144160008301856112c6565b61144e60208301846113f3565b9392505050565b600060208201905061146a60008301846112d5565b92915050565b600060208201905061148560008301846112e4565b92915050565b600060208201905081810360008301526114a4816112f3565b9050919050565b600060208201905081810360008301526114c481611333565b9050919050565b600060208201905081810360008301526114e481611373565b9050919050565b60006020820190508181036000830152611504816113b3565b9050919050565b600060208201905061152060008301846113f3565b92915050565b600060408201905061153b60008301856113f3565b61154860208301846113f3565b9392505050565b60006020820190506115646000830184611402565b92915050565b600082825260208201905092915050565b6000611586826116ce565b9150611591836116ce565b9250827fffffffffffffffffffffffffffffffffffffffffffffffffffffffffffffffff038211156115c6576115c5611709565b5b828201905092915050565b60006115dc826116ce565b91506115e7836116ce565b9250826115f7576115f6611738565b5b828204905092915050565b600061160d826116ce565b9150611618836116ce565b9250817fffffffffffffffffffffffffffffffffffffffffffffffffffffffffffffffff048311821515161561165157611650611709565b5b828202905092915050565b6000611667826116ce565b9150611672836116ce565b92508282101561168557611684611709565b5b828203905092915050565b600061169b826116ae565b9050919050565b60008115159050919050565b600073ffffffffffffffffffffffffffffffffffffffff82169050919050565b6000819050919050565b600060ff82169050919050565b60006116f0826116f7565b9050919050565b6000611702826116ae565b9050919050565b7f4e487b7100000000000000000000000000000000000000000000000000000000600052601160045260246000fd5b7f4e487b7100000000000000000000000000000000000000000000000000000000600052601260045260246000fd5b61177081611690565b811461177b57600080fd5b50565b611787816116ce565b811461179257600080fd5b5056fea2646970667358221220f1c1267c1a86d492c73b1aad85f3c9584d9085da3da76e4aa2f50de40266e8d764736f6c63430008000033",
  "immutableReferences": {},
  "source": "// SPDX-License-Identifier: MIT\r\npragma solidity ^0.8.0;\r\n\r\nimport \"../token/SLETH.sol\";\r\n\r\ncontract Staking{\r\n    \r\n    address public owner;\r\n    address public devAddress;\r\n    uint8 public fee = 75; //7.5% fees\r\n    uint256 public rewardFee;\r\n    uint256 public totalReward;\r\n    address constant public ETHER = address(0);\r\n    uint256 constant public DEPOSIT_SIZE = 32 ether;\r\n    SLETH public slETH;\r\n    \r\n    //storing stakers addresses\r\n    address[] public stakers;\r\n    mapping(address => mapping(address=> uint256)) public stakingBalance;\r\n    uint256 public stakedAmount;\r\n    mapping(address=>uint256) public feeByUser;\r\n    mapping(address => uint256) public rewardBalance;\r\n    mapping(address => bool) public isStaking;\r\n    mapping(address => bool) public hasStaked;\r\n    \r\n    //events\r\n    event Stake(address indexed token, address indexed user, uint256 amount, uint256 balance);\r\n    event TransferSleth(address indexed user, uint256 amount, uint timestamp);\r\n    event Withdraw(address indexed token, address indexed user, uint256 amount, uint256 balance);\r\n    event ClaimRewards(address indexed user, uint256 amount);\r\n\r\n    constructor( address _owner, address _devAddress, SLETH _slETH ){\r\n        owner = _owner;\r\n        devAddress = _devAddress;\r\n        slETH = _slETH;\r\n    }\r\n\r\n    modifier onlyOwner {\r\n        require(msg.sender == owner);\r\n        _;\r\n    }\r\n\r\n    function stakeETHER() payable public{\r\n        require(msg.value > 0, \"Amount cannot be zero\");\r\n        if(!hasStaked[msg.sender]){\r\n            stakers.push(msg.sender);\r\n        }\r\n        stakingBalance[ETHER][msg.sender] = stakingBalance[ETHER][msg.sender]+(msg.value);\r\n        stakedAmount += msg.value;\r\n        isStaking[msg.sender] = true;\r\n        hasStaked[msg.sender] = true;\r\n        emit Stake(ETHER, msg.sender, msg.value, stakingBalance[ETHER][msg.sender]);\r\n        slETH._mint(msg.sender, msg.value);\r\n        emit TransferSleth(msg.sender, msg.value, block.timestamp);\r\n    }\r\n\r\n    /*This is for users only. Users can call this function to withdraw their staked eth.\r\n      Commenting out this function for now. We would have to decide whether we want to give user slETH or just give them options to withdraw. \r\n      We can not have both these options. Otherwise, user will be able to trade their slETH to eth and claim the eth they staked as well.\r\n    */\r\n    // function userWithdraw(uint256 _amount) public {\r\n    //     require(isStaking[msg.sender] == true, \"No Eth to withdraw\");\r\n    //     require(stakingBalance[ETHER][msg.sender]>=_amount);\r\n    //     stakingBalance[ETHER][msg.sender] =stakingBalance[ETHER][msg.sender]-(_amount);\r\n    //     payable(msg.sender).transfer(_amount);\r\n    //     isStaking[msg.sender] == false;\r\n    //     emit Withdraw(ETHER, msg.sender, _amount, stakingBalance[ETHER][msg.sender]); \r\n    // }\r\n\r\n    /* setReward will be called by the owner only once a day to update the total reward */\r\n    function setReward(uint256 _reward) public onlyOwner {\r\n            totalReward = _reward;\r\n    }\r\n\r\n    /* claimReward will be called by the user. We can set the condition where owner are not able to call this function.\r\n        further info is needed by the client*/\r\n    function claimReward() public{\r\n        require(isStaking[msg.sender]==true, \"No staked Ether\");\r\n        require(msg.sender == address(0), \"Invalid address\");\r\n        uint256 rewardPerUser = calculateRewards(msg.sender);\r\n        payable(msg.sender).transfer(rewardPerUser);\r\n        emit ClaimRewards(msg.sender, rewardPerUser);\r\n\r\n    }\r\n\r\n    /* calculateRewards will calculate the user reward based on eth satked by the user/ total staked eth. */\r\n    function calculateRewards(address _user) public returns(uint256) {\r\n        uint256 stakedEthByuser = stakingBalance[ETHER][_user];\r\n        uint256 allocationPerUser = (stakedEthByuser/stakedAmount)*100;\r\n        uint256 reward = (allocationPerUser*totalReward);\r\n        feeByUser[_user] = (reward*fee)/1000;\r\n        rewardBalance[_user] = reward - feeByUser[_user];\r\n        totalReward -= reward; \r\n        return rewardBalance[_user];\r\n    }\r\n\r\n    /* claimFee will be called by the owner only.\r\n       upon calling 7.5% reward fees will get transfered to dev address. Which we will set when depolying this contract  */\r\n    function claimFee() public onlyOwner {\r\n        require(rewardFee > 0, \"No fee to claim\");\r\n        payable(devAddress).transfer(rewardFee);\r\n    }\r\n    //change to escrow contract\r\n\r\n    /*WithdrawEther can be only called by owner. This function will get only called if the total staked balance is equal\r\n      or more than discussed amount.\r\n    */\r\n    function withdrawEther(uint256 _amount) public onlyOwner{\r\n        payable(msg.sender).transfer(_amount);\r\n    }\r\n\r\n    function balanceOf(address _user) public view returns (uint256){\r\n        return stakingBalance[ETHER][_user];\r\n    }\r\n\r\n    function stillStaking() public view returns(bool){\r\n        return isStaking[msg.sender];\r\n    }\r\n}",
  "sourcePath": "/mnt/c/pr0/lightNodeContracts/contracts/deposit/Staking.sol",
  "compiler": {
    "name": "solc",
    "version": "0.8.0+commit.c7dfd78e.Emscripten.clang"
  },
  "schemaVersion": "3.2.5",
  "updatedAt": "2022-03-06T01:59:43.873Z",
  "networkType": "ethereum",
  "devdoc": {
    "kind": "dev",
    "methods": {},
    "version": 1
  },
  "userdoc": {
    "kind": "user",
    "methods": {},
    "version": 1
  }
}