{
  "contractName": "Staking",
  "abi": [
    {
      "inputs": [
        {
          "internalType": "address",
          "name": "_owner",
          "type": "address"
        }
      ],
      "stateMutability": "nonpayable",
      "type": "constructor"
    },
    {
      "anonymous": false,
      "inputs": [
        {
          "indexed": true,
          "internalType": "address",
          "name": "token",
          "type": "address"
        },
        {
          "indexed": true,
          "internalType": "address",
          "name": "user",
          "type": "address"
        },
        {
          "indexed": false,
          "internalType": "uint256",
          "name": "amount",
          "type": "uint256"
        },
        {
          "indexed": false,
          "internalType": "uint256",
          "name": "balance",
          "type": "uint256"
        }
      ],
      "name": "Stake",
      "type": "event"
    },
    {
      "anonymous": false,
      "inputs": [
        {
          "indexed": true,
          "internalType": "address",
          "name": "token",
          "type": "address"
        },
        {
          "indexed": true,
          "internalType": "address",
          "name": "user",
          "type": "address"
        },
        {
          "indexed": false,
          "internalType": "uint256",
          "name": "amount",
          "type": "uint256"
        },
        {
          "indexed": false,
          "internalType": "uint256",
          "name": "balance",
          "type": "uint256"
        }
      ],
      "name": "Withdraw",
      "type": "event"
    },
    {
      "inputs": [
        {
          "internalType": "address",
          "name": "",
          "type": "address"
        }
      ],
      "name": "isStaking",
      "outputs": [
        {
          "internalType": "bool",
          "name": "",
          "type": "bool"
        }
      ],
      "stateMutability": "view",
      "type": "function"
    },
    {
      "inputs": [],
      "name": "owner",
      "outputs": [
        {
          "internalType": "address",
          "name": "",
          "type": "address"
        }
      ],
      "stateMutability": "view",
      "type": "function"
    },
    {
      "inputs": [
        {
          "internalType": "address",
          "name": "",
          "type": "address"
        }
      ],
      "name": "rewardBalance",
      "outputs": [
        {
          "internalType": "uint256",
          "name": "",
          "type": "uint256"
        }
      ],
      "stateMutability": "view",
      "type": "function"
    },
    {
      "inputs": [
        {
          "internalType": "uint256",
          "name": "",
          "type": "uint256"
        }
      ],
      "name": "stakers",
      "outputs": [
        {
          "internalType": "address",
          "name": "",
          "type": "address"
        }
      ],
      "stateMutability": "view",
      "type": "function"
    },
    {
      "inputs": [
        {
          "internalType": "address",
          "name": "",
          "type": "address"
        },
        {
          "internalType": "address",
          "name": "",
          "type": "address"
        }
      ],
      "name": "stakingBalance",
      "outputs": [
        {
          "internalType": "uint256",
          "name": "",
          "type": "uint256"
        }
      ],
      "stateMutability": "view",
      "type": "function"
    },
    {
      "inputs": [
        {
          "internalType": "address",
          "name": "_token",
          "type": "address"
        },
        {
          "internalType": "uint256",
          "name": "_amount",
          "type": "uint256"
        }
      ],
      "name": "stakeETHER",
      "outputs": [],
      "stateMutability": "payable",
      "type": "function"
    },
    {
      "inputs": [
        {
          "internalType": "uint256",
          "name": "_amount",
          "type": "uint256"
        }
      ],
      "name": "withdrawETHER",
      "outputs": [],
      "stateMutability": "nonpayable",
      "type": "function"
    },
    {
      "inputs": [
        {
          "internalType": "address",
          "name": "_user",
          "type": "address"
        }
      ],
      "name": "balanceOf",
      "outputs": [
        {
          "internalType": "uint256",
          "name": "",
          "type": "uint256"
        }
      ],
      "stateMutability": "view",
      "type": "function"
    }
  ],
  "bytecode": "0x608060405234801561001057600080fd5b50604051610e46380380610e468339818101604052810190610032919061008d565b806000806101000a81548173ffffffffffffffffffffffffffffffffffffffff021916908373ffffffffffffffffffffffffffffffffffffffff160217905550506100ff565b600081519050610087816100e8565b92915050565b60006020828403121561009f57600080fd5b60006100ad84828501610078565b91505092915050565b60006100c1826100c8565b9050919050565b600073ffffffffffffffffffffffffffffffffffffffff82169050919050565b6100f1816100b6565b81146100fc57600080fd5b50565b610d388061010e6000396000f3fe60806040526004361061007b5760003560e01c80636f49712b1161004e5780636f49712b1461013f57806370a082311461017c5780638da5cb5b146101b9578063fd5e6dd1146101e45761007b565b8063240556721461008057806329161a00146100a95780634b66d2f6146100e657806367b40cf714610102575b600080fd5b34801561008c57600080fd5b506100a760048036038101906100a29190610a32565b610221565b005b3480156100b557600080fd5b506100d060048036038101906100cb91906109ba565b610573565b6040516100dd9190610b7e565b60405180910390f35b61010060048036038101906100fb91906109f6565b610598565b005b34801561010e57600080fd5b5061012960048036038101906101249190610991565b610846565b6040516101369190610b7e565b60405180910390f35b34801561014b57600080fd5b5061016660048036038101906101619190610991565b61085e565b6040516101739190610b23565b60405180910390f35b34801561018857600080fd5b506101a3600480360381019061019e9190610991565b61087e565b6040516101b09190610b7e565b60405180910390f35b3480156101c557600080fd5b506101ce610904565b6040516101db9190610b08565b60405180910390f35b3480156101f057600080fd5b5061020b60048036038101906102069190610a32565b610928565b6040516102189190610b08565b60405180910390f35b60011515600460003373ffffffffffffffffffffffffffffffffffffffff1673ffffffffffffffffffffffffffffffffffffffff16815260200190815260200160002060009054906101000a900460ff161515146102b4576040517f08c379a00000000000000000000000000000000000000000000000000000000081526004016102ab90610b3e565b60405180910390fd5b80600260008073ffffffffffffffffffffffffffffffffffffffff1673ffffffffffffffffffffffffffffffffffffffff16815260200190815260200160002060003373ffffffffffffffffffffffffffffffffffffffff1673ffffffffffffffffffffffffffffffffffffffff16815260200190815260200160002054101561033d57600080fd5b80600260008073ffffffffffffffffffffffffffffffffffffffff1673ffffffffffffffffffffffffffffffffffffffff16815260200190815260200160002060003373ffffffffffffffffffffffffffffffffffffffff1673ffffffffffffffffffffffffffffffffffffffff168152602001908152602001600020546103c59190610c29565b600260008073ffffffffffffffffffffffffffffffffffffffff1673ffffffffffffffffffffffffffffffffffffffff16815260200190815260200160002060003373ffffffffffffffffffffffffffffffffffffffff1673ffffffffffffffffffffffffffffffffffffffff168152602001908152602001600020819055503373ffffffffffffffffffffffffffffffffffffffff166108fc829081150290604051600060405180830381858888f1935050505015801561048b573d6000803e3d6000fd5b503373ffffffffffffffffffffffffffffffffffffffff16600073ffffffffffffffffffffffffffffffffffffffff167ff341246adaac6f497bc2a656f546ab9e182111d630394f0c57c710a59a2cb56783600260008073ffffffffffffffffffffffffffffffffffffffff1673ffffffffffffffffffffffffffffffffffffffff16815260200190815260200160002060003373ffffffffffffffffffffffffffffffffffffffff1673ffffffffffffffffffffffffffffffffffffffff16815260200190815260200160002054604051610568929190610b99565b60405180910390a350565b6002602052816000526040600020602052806000526040600020600091509150505481565b600073ffffffffffffffffffffffffffffffffffffffff168273ffffffffffffffffffffffffffffffffffffffff1614610607576040517f08c379a00000000000000000000000000000000000000000000000000000000081526004016105fe90610b5e565b60405180910390fd5b80600260008473ffffffffffffffffffffffffffffffffffffffff1673ffffffffffffffffffffffffffffffffffffffff16815260200190815260200160002060003373ffffffffffffffffffffffffffffffffffffffff1673ffffffffffffffffffffffffffffffffffffffff1681526020019081526020016000205461068f9190610bd3565b600260008473ffffffffffffffffffffffffffffffffffffffff1673ffffffffffffffffffffffffffffffffffffffff16815260200190815260200160002060003373ffffffffffffffffffffffffffffffffffffffff1673ffffffffffffffffffffffffffffffffffffffff1681526020019081526020016000208190555060011515600460003373ffffffffffffffffffffffffffffffffffffffff1673ffffffffffffffffffffffffffffffffffffffff16815260200190815260200160002060009054906101000a905050503373ffffffffffffffffffffffffffffffffffffffff168273ffffffffffffffffffffffffffffffffffffffff167f63602d0ecc7b3a0ef7ff1a116e23056662d64280355ba8031b6d0d767c4b445883600260008773ffffffffffffffffffffffffffffffffffffffff1673ffffffffffffffffffffffffffffffffffffffff16815260200190815260200160002060003373ffffffffffffffffffffffffffffffffffffffff1673ffffffffffffffffffffffffffffffffffffffff1681526020019081526020016000205460405161083a929190610b99565b60405180910390a35050565b60036020528060005260406000206000915090505481565b60046020528060005260406000206000915054906101000a900460ff1681565b6000600260008073ffffffffffffffffffffffffffffffffffffffff1673ffffffffffffffffffffffffffffffffffffffff16815260200190815260200160002060008373ffffffffffffffffffffffffffffffffffffffff1673ffffffffffffffffffffffffffffffffffffffff168152602001908152602001600020549050919050565b60008054906101000a900473ffffffffffffffffffffffffffffffffffffffff1681565b6001818154811061093857600080fd5b906000526020600020016000915054906101000a900473ffffffffffffffffffffffffffffffffffffffff1681565b60008135905061097681610cd4565b92915050565b60008135905061098b81610ceb565b92915050565b6000602082840312156109a357600080fd5b60006109b184828501610967565b91505092915050565b600080604083850312156109cd57600080fd5b60006109db85828601610967565b92505060206109ec85828601610967565b9150509250929050565b60008060408385031215610a0957600080fd5b6000610a1785828601610967565b9250506020610a288582860161097c565b9150509250929050565b600060208284031215610a4457600080fd5b6000610a528482850161097c565b91505092915050565b610a6481610c5d565b82525050565b610a7381610c6f565b82525050565b6000610a86601283610bc2565b91507f4e6f2045746820746f20776974686472617700000000000000000000000000006000830152602082019050919050565b6000610ac6600d83610bc2565b91507f496e76616c696420546f6b656e000000000000000000000000000000000000006000830152602082019050919050565b610b0281610c9b565b82525050565b6000602082019050610b1d6000830184610a5b565b92915050565b6000602082019050610b386000830184610a6a565b92915050565b60006020820190508181036000830152610b5781610a79565b9050919050565b60006020820190508181036000830152610b7781610ab9565b9050919050565b6000602082019050610b936000830184610af9565b92915050565b6000604082019050610bae6000830185610af9565b610bbb6020830184610af9565b9392505050565b600082825260208201905092915050565b6000610bde82610c9b565b9150610be983610c9b565b9250827fffffffffffffffffffffffffffffffffffffffffffffffffffffffffffffffff03821115610c1e57610c1d610ca5565b5b828201905092915050565b6000610c3482610c9b565b9150610c3f83610c9b565b925082821015610c5257610c51610ca5565b5b828203905092915050565b6000610c6882610c7b565b9050919050565b60008115159050919050565b600073ffffffffffffffffffffffffffffffffffffffff82169050919050565b6000819050919050565b7f4e487b7100000000000000000000000000000000000000000000000000000000600052601160045260246000fd5b610cdd81610c5d565b8114610ce857600080fd5b50565b610cf481610c9b565b8114610cff57600080fd5b5056fea264697066735822122099d0ef4a2e20be63fe73fefb40ac246c32c20ee5f8fb7dd427448ee55bbaa45564736f6c63430008000033",
  "immutableReferences": {},
  "source": "// SPDX-License-Identifier: MIT\r\npragma solidity ^0.8.0;\r\n\r\ncontract Staking{\r\n    \r\n    address public owner;\r\n    address constant ETHER = address(0);\r\n    //storing stakers addresses\r\n    address[] public stakers;\r\n    mapping(address => mapping(address=> uint256)) public stakingBalance;\r\n    //mapping(address => uint256) public stakingBalance;\r\n    mapping(address => uint256) public rewardBalance;\r\n    mapping(address => bool) public  isStaking;\r\n    \r\n    //events\r\n    event Stake(address indexed token, address indexed user, uint256 amount, uint256 balance);\r\n    event Withdraw(address indexed token, address indexed user, uint256 amount, uint256 balance);\r\n\r\n    constructor( address _owner ){\r\n        owner = _owner;\r\n    }\r\n\r\n    function stakeETHER( address _token, uint256 _amount) payable public{\r\n        require(_token == ETHER, \"Invalid Token\");\r\n        stakingBalance[_token][msg.sender] = stakingBalance[_token][msg.sender]+(_amount);\r\n        isStaking[msg.sender] == true; \r\n        emit Stake(_token, msg.sender, _amount, stakingBalance[_token][msg.sender] );\r\n    }\r\n\r\n    function withdrawETHER(uint256 _amount) public {\r\n        require(isStaking[msg.sender] == true, \"No Eth to withdraw\");\r\n        require(stakingBalance[ETHER][msg.sender]>=_amount);\r\n        stakingBalance[ETHER][msg.sender] =stakingBalance[ETHER][msg.sender]-(_amount);\r\n        payable(msg.sender).transfer(_amount);\r\n        emit Withdraw(ETHER, msg.sender, _amount, stakingBalance[ETHER][msg.sender]); \r\n\r\n    }\r\n\r\n    function balanceOf(address _user) public view returns (uint256){\r\n        return stakingBalance[ETHER][_user];\r\n    }\r\n}",
  "sourcePath": "/mnt/c/pr0/lightNodeContracts/contracts/Staking.sol",
  "compiler": {
    "name": "solc",
    "version": "0.8.0+commit.c7dfd78e.Emscripten.clang"
  },
  "schemaVersion": "3.2.5",
  "updatedAt": "2022-01-25T23:16:38.879Z",
  "devdoc": {
    "kind": "dev",
    "methods": {},
    "version": 1
  },
  "userdoc": {
    "kind": "user",
    "methods": {},
    "version": 1
  }
}