{
  "contractName": "Staking",
  "abi": [
    {
      "inputs": [
        {
          "internalType": "address",
          "name": "_owner",
          "type": "address"
        },
        {
          "internalType": "address",
          "name": "_devAddress",
          "type": "address"
        }
      ],
      "stateMutability": "nonpayable",
      "type": "constructor"
    },
    {
      "anonymous": false,
      "inputs": [
        {
          "indexed": true,
          "internalType": "address",
          "name": "user",
          "type": "address"
        },
        {
          "indexed": false,
          "internalType": "uint256",
          "name": "amount",
          "type": "uint256"
        }
      ],
      "name": "ClaimRewards",
      "type": "event"
    },
    {
      "anonymous": false,
      "inputs": [
        {
          "indexed": true,
          "internalType": "address",
          "name": "token",
          "type": "address"
        },
        {
          "indexed": true,
          "internalType": "address",
          "name": "user",
          "type": "address"
        },
        {
          "indexed": false,
          "internalType": "uint256",
          "name": "amount",
          "type": "uint256"
        },
        {
          "indexed": false,
          "internalType": "uint256",
          "name": "balance",
          "type": "uint256"
        }
      ],
      "name": "Stake",
      "type": "event"
    },
    {
      "anonymous": false,
      "inputs": [
        {
          "indexed": true,
          "internalType": "address",
          "name": "user",
          "type": "address"
        },
        {
          "indexed": false,
          "internalType": "uint256",
          "name": "amount",
          "type": "uint256"
        },
        {
          "indexed": false,
          "internalType": "uint256",
          "name": "timestamp",
          "type": "uint256"
        }
      ],
      "name": "TransferSeth",
      "type": "event"
    },
    {
      "anonymous": false,
      "inputs": [
        {
          "indexed": true,
          "internalType": "address",
          "name": "token",
          "type": "address"
        },
        {
          "indexed": true,
          "internalType": "address",
          "name": "user",
          "type": "address"
        },
        {
          "indexed": false,
          "internalType": "uint256",
          "name": "amount",
          "type": "uint256"
        },
        {
          "indexed": false,
          "internalType": "uint256",
          "name": "balance",
          "type": "uint256"
        }
      ],
      "name": "Withdraw",
      "type": "event"
    },
    {
      "inputs": [],
      "name": "devAddress",
      "outputs": [
        {
          "internalType": "address",
          "name": "",
          "type": "address"
        }
      ],
      "stateMutability": "view",
      "type": "function",
      "constant": true
    },
    {
      "inputs": [],
      "name": "fee",
      "outputs": [
        {
          "internalType": "uint256",
          "name": "",
          "type": "uint256"
        }
      ],
      "stateMutability": "view",
      "type": "function",
      "constant": true
    },
    {
      "inputs": [
        {
          "internalType": "address",
          "name": "",
          "type": "address"
        }
      ],
      "name": "hasStaked",
      "outputs": [
        {
          "internalType": "bool",
          "name": "",
          "type": "bool"
        }
      ],
      "stateMutability": "view",
      "type": "function",
      "constant": true
    },
    {
      "inputs": [
        {
          "internalType": "address",
          "name": "",
          "type": "address"
        }
      ],
      "name": "isStaking",
      "outputs": [
        {
          "internalType": "bool",
          "name": "",
          "type": "bool"
        }
      ],
      "stateMutability": "view",
      "type": "function",
      "constant": true
    },
    {
      "inputs": [],
      "name": "owner",
      "outputs": [
        {
          "internalType": "address",
          "name": "",
          "type": "address"
        }
      ],
      "stateMutability": "view",
      "type": "function",
      "constant": true
    },
    {
      "inputs": [
        {
          "internalType": "address",
          "name": "",
          "type": "address"
        }
      ],
      "name": "rewardBalance",
      "outputs": [
        {
          "internalType": "uint256",
          "name": "",
          "type": "uint256"
        }
      ],
      "stateMutability": "view",
      "type": "function",
      "constant": true
    },
    {
      "inputs": [],
      "name": "slETH",
      "outputs": [
        {
          "internalType": "contract SLETH",
          "name": "",
          "type": "address"
        }
      ],
      "stateMutability": "view",
      "type": "function",
      "constant": true
    },
    {
      "inputs": [],
      "name": "stakedAmount",
      "outputs": [
        {
          "internalType": "uint256",
          "name": "",
          "type": "uint256"
        }
      ],
      "stateMutability": "view",
      "type": "function",
      "constant": true
    },
    {
      "inputs": [
        {
          "internalType": "uint256",
          "name": "",
          "type": "uint256"
        }
      ],
      "name": "stakers",
      "outputs": [
        {
          "internalType": "address",
          "name": "",
          "type": "address"
        }
      ],
      "stateMutability": "view",
      "type": "function",
      "constant": true
    },
    {
      "inputs": [
        {
          "internalType": "address",
          "name": "",
          "type": "address"
        },
        {
          "internalType": "address",
          "name": "",
          "type": "address"
        }
      ],
      "name": "stakingBalance",
      "outputs": [
        {
          "internalType": "uint256",
          "name": "",
          "type": "uint256"
        }
      ],
      "stateMutability": "view",
      "type": "function",
      "constant": true
    },
    {
      "inputs": [
        {
          "internalType": "address",
          "name": "_token",
          "type": "address"
        },
        {
          "internalType": "uint256",
          "name": "_amount",
          "type": "uint256"
        }
      ],
      "name": "stakeETHER",
      "outputs": [],
      "stateMutability": "payable",
      "type": "function",
      "payable": true
    },
    {
      "inputs": [
        {
          "internalType": "uint256",
          "name": "_reward",
          "type": "uint256"
        }
      ],
      "name": "setReward",
      "outputs": [],
      "stateMutability": "nonpayable",
      "type": "function"
    },
    {
      "inputs": [],
      "name": "claimReward",
      "outputs": [],
      "stateMutability": "nonpayable",
      "type": "function"
    },
    {
      "inputs": [],
      "name": "claimFee",
      "outputs": [],
      "stateMutability": "nonpayable",
      "type": "function"
    },
    {
      "inputs": [
        {
          "internalType": "uint256",
          "name": "_amount",
          "type": "uint256"
        }
      ],
      "name": "withdrawEther",
      "outputs": [],
      "stateMutability": "nonpayable",
      "type": "function"
    },
    {
      "inputs": [
        {
          "internalType": "address",
          "name": "_user",
          "type": "address"
        }
      ],
      "name": "balanceOf",
      "outputs": [
        {
          "internalType": "uint256",
          "name": "",
          "type": "uint256"
        }
      ],
      "stateMutability": "view",
      "type": "function",
      "constant": true
    },
    {
      "inputs": [],
      "name": "stillStaking",
      "outputs": [
        {
          "internalType": "bool",
          "name": "",
          "type": "bool"
        }
      ],
      "stateMutability": "view",
      "type": "function",
      "constant": true
    }
  ],
  "bytecode": "0x6080604052604b6002553480156200001657600080fd5b506040516200174a3803806200174a83398181016040528101906200003c9190620000dc565b816000806101000a81548173ffffffffffffffffffffffffffffffffffffffff021916908373ffffffffffffffffffffffffffffffffffffffff16021790555080600160006101000a81548173ffffffffffffffffffffffffffffffffffffffff021916908373ffffffffffffffffffffffffffffffffffffffff16021790555050506200016b565b600081519050620000d68162000151565b92915050565b60008060408385031215620000f057600080fd5b60006200010085828601620000c5565b92505060206200011385828601620000c5565b9150509250929050565b60006200012a8262000131565b9050919050565b600073ffffffffffffffffffffffffffffffffffffffff82169050919050565b6200015c816200011d565b81146200016857600080fd5b50565b6115cf806200017b6000396000f3fe6080604052600436106100fe5760003560e01c80636f49712b116100955780639e10a6ee116100645780639e10a6ee14610328578063b88a802f14610353578063c93c8f341461036a578063ddca3f43146103a7578063fd5e6dd1146103d2576100fe565b80636f49712b1461026c57806370a08231146102a95780638da5cb5b146102e657806399d32fc414610311576100fe565b80633bed33ce116100d15780633bed33ce146101bf5780634b66d2f6146101e857806361d5c23b1461020457806367b40cf71461022f576100fe565b806329161a0014610103578063293be45614610140578063373d6132146101695780633ad10ef614610194575b600080fd5b34801561010f57600080fd5b5061012a60048036038101906101259190611060565b61040f565b6040516101379190611337565b60405180910390f35b34801561014c57600080fd5b50610167600480360381019061016291906110d8565b610434565b005b34801561017557600080fd5b5061017e610496565b60405161018b9190611337565b60405180910390f35b3480156101a057600080fd5b506101a961049c565b6040516101b6919061123d565b60405180910390f35b3480156101cb57600080fd5b506101e660048036038101906101e191906110d8565b6104c2565b005b61020260048036038101906101fd919061109c565b610564565b005b34801561021057600080fd5b50610219610a1f565b604051610226919061129c565b60405180910390f35b34801561023b57600080fd5b5061025660048036038101906102519190611037565b610a45565b6040516102639190611337565b60405180910390f35b34801561027857600080fd5b50610293600480360381019061028e9190611037565b610a5d565b6040516102a09190611281565b60405180910390f35b3480156102b557600080fd5b506102d060048036038101906102cb9190611037565b610a7d565b6040516102dd9190611337565b60405180910390f35b3480156102f257600080fd5b506102fb610b03565b604051610308919061123d565b60405180910390f35b34801561031d57600080fd5b50610326610b27565b005b34801561033457600080fd5b5061033d610c31565b60405161034a9190611281565b60405180910390f35b34801561035f57600080fd5b50610368610c85565b005b34801561037657600080fd5b50610391600480360381019061038c9190611037565b610e2c565b60405161039e9190611281565b60405180910390f35b3480156103b357600080fd5b506103bc610e4c565b6040516103c99190611337565b60405180910390f35b3480156103de57600080fd5b506103f960048036038101906103f491906110d8565b610e52565b604051610406919061123d565b60405180910390f35b6007602052816000526040600020602052806000526040600020600091509150505481565b60008054906101000a900473ffffffffffffffffffffffffffffffffffffffff1673ffffffffffffffffffffffffffffffffffffffff163373ffffffffffffffffffffffffffffffffffffffff161461048c57600080fd5b8060048190555050565b60085481565b600160009054906101000a900473ffffffffffffffffffffffffffffffffffffffff1681565b60008054906101000a900473ffffffffffffffffffffffffffffffffffffffff1673ffffffffffffffffffffffffffffffffffffffff163373ffffffffffffffffffffffffffffffffffffffff161461051a57600080fd5b3373ffffffffffffffffffffffffffffffffffffffff166108fc829081150290604051600060405180830381858888f19350505050158015610560573d6000803e3d6000fd5b5050565b600073ffffffffffffffffffffffffffffffffffffffff168273ffffffffffffffffffffffffffffffffffffffff16146105d3576040517f08c379a00000000000000000000000000000000000000000000000000000000081526004016105ca906112d7565b60405180910390fd5b600b60003373ffffffffffffffffffffffffffffffffffffffff1673ffffffffffffffffffffffffffffffffffffffff16815260200190815260200160002060009054906101000a900460ff16610688576006339080600181540180825580915050600190039060005260206000200160009091909190916101000a81548173ffffffffffffffffffffffffffffffffffffffff021916908373ffffffffffffffffffffffffffffffffffffffff1602179055505b80600760008473ffffffffffffffffffffffffffffffffffffffff1673ffffffffffffffffffffffffffffffffffffffff16815260200190815260200160002060003373ffffffffffffffffffffffffffffffffffffffff1673ffffffffffffffffffffffffffffffffffffffff16815260200190815260200160002054610710919061138c565b600760008473ffffffffffffffffffffffffffffffffffffffff1673ffffffffffffffffffffffffffffffffffffffff16815260200190815260200160002060003373ffffffffffffffffffffffffffffffffffffffff1673ffffffffffffffffffffffffffffffffffffffff168152602001908152602001600020819055506001600a60003373ffffffffffffffffffffffffffffffffffffffff1673ffffffffffffffffffffffffffffffffffffffff16815260200190815260200160002060006101000a81548160ff0219169083151502179055506001600b60003373ffffffffffffffffffffffffffffffffffffffff1673ffffffffffffffffffffffffffffffffffffffff16815260200190815260200160002060006101000a81548160ff0219169083151502179055508060086000828254610852919061138c565b925050819055503373ffffffffffffffffffffffffffffffffffffffff168273ffffffffffffffffffffffffffffffffffffffff167f63602d0ecc7b3a0ef7ff1a116e23056662d64280355ba8031b6d0d767c4b445883600760008773ffffffffffffffffffffffffffffffffffffffff1673ffffffffffffffffffffffffffffffffffffffff16815260200190815260200160002060003373ffffffffffffffffffffffffffffffffffffffff1673ffffffffffffffffffffffffffffffffffffffff16815260200190815260200160002054604051610934929190611352565b60405180910390a3600560009054906101000a900473ffffffffffffffffffffffffffffffffffffffff1673ffffffffffffffffffffffffffffffffffffffff16634e6ec24733836040518363ffffffff1660e01b8152600401610999929190611258565b600060405180830381600087803b1580156109b357600080fd5b505af11580156109c7573d6000803e3d6000fd5b505050503373ffffffffffffffffffffffffffffffffffffffff167fc18b5b3cb7658b312e1f7a46cb272bffb6c5f32470851d260a998587c5eb77258242604051610a13929190611352565b60405180910390a25050565b600560009054906101000a900473ffffffffffffffffffffffffffffffffffffffff1681565b60096020528060005260406000206000915090505481565b600a6020528060005260406000206000915054906101000a900460ff1681565b6000600760008073ffffffffffffffffffffffffffffffffffffffff1673ffffffffffffffffffffffffffffffffffffffff16815260200190815260200160002060008373ffffffffffffffffffffffffffffffffffffffff1673ffffffffffffffffffffffffffffffffffffffff168152602001908152602001600020549050919050565b60008054906101000a900473ffffffffffffffffffffffffffffffffffffffff1681565b60008054906101000a900473ffffffffffffffffffffffffffffffffffffffff1673ffffffffffffffffffffffffffffffffffffffff163373ffffffffffffffffffffffffffffffffffffffff1614610b7f57600080fd5b600060035411610bc4576040517f08c379a0000000000000000000000000000000000000000000000000000000008152600401610bbb90611317565b60405180910390fd5b600160009054906101000a900473ffffffffffffffffffffffffffffffffffffffff1673ffffffffffffffffffffffffffffffffffffffff166108fc6003549081150290604051600060405180830381858888f19350505050158015610c2e573d6000803e3d6000fd5b50565b6000600a60003373ffffffffffffffffffffffffffffffffffffffff1673ffffffffffffffffffffffffffffffffffffffff16815260200190815260200160002060009054906101000a900460ff16905090565b60011515600a60003373ffffffffffffffffffffffffffffffffffffffff1673ffffffffffffffffffffffffffffffffffffffff16815260200190815260200160002060009054906101000a900460ff16151514610d18576040517f08c379a0000000000000000000000000000000000000000000000000000000008152600401610d0f906112f7565b60405180910390fd5b600073ffffffffffffffffffffffffffffffffffffffff163373ffffffffffffffffffffffffffffffffffffffff1614610d87576040517f08c379a0000000000000000000000000000000000000000000000000000000008152600401610d7e906112b7565b60405180910390fd5b6000610d9233610e91565b90503373ffffffffffffffffffffffffffffffffffffffff166108fc829081150290604051600060405180830381858888f19350505050158015610dda573d6000803e3d6000fd5b503373ffffffffffffffffffffffffffffffffffffffff167f1f89f96333d3133000ee447473151fa9606543368f02271c9d95ae14f13bcc6782604051610e219190611337565b60405180910390a250565b600b6020528060005260406000206000915054906101000a900460ff1681565b60025481565b60068181548110610e6257600080fd5b906000526020600020016000915054906101000a900473ffffffffffffffffffffffffffffffffffffffff1681565b600080600760008073ffffffffffffffffffffffffffffffffffffffff1673ffffffffffffffffffffffffffffffffffffffff16815260200190815260200160002060008473ffffffffffffffffffffffffffffffffffffffff1673ffffffffffffffffffffffffffffffffffffffff1681526020019081526020016000205490506103e8600254600454610f269190611413565b610f3091906113e2565b6003819055506000600354600454610f48919061146d565b90506000600854606484610f5c9190611413565b610f6691906113e2565b905060648282610f769190611413565b610f8091906113e2565b600960008773ffffffffffffffffffffffffffffffffffffffff1673ffffffffffffffffffffffffffffffffffffffff16815260200190815260200160002081905550600960008673ffffffffffffffffffffffffffffffffffffffff1673ffffffffffffffffffffffffffffffffffffffff168152602001908152602001600020549350505050919050565b60008135905061101c8161156b565b92915050565b60008135905061103181611582565b92915050565b60006020828403121561104957600080fd5b60006110578482850161100d565b91505092915050565b6000806040838503121561107357600080fd5b60006110818582860161100d565b92505060206110928582860161100d565b9150509250929050565b600080604083850312156110af57600080fd5b60006110bd8582860161100d565b92505060206110ce85828601611022565b9150509250929050565b6000602082840312156110ea57600080fd5b60006110f884828501611022565b91505092915050565b61110a816114a1565b82525050565b611119816114b3565b82525050565b611128816114e9565b82525050565b600061113b600f8361137b565b91507f496e76616c6964206164647265737300000000000000000000000000000000006000830152602082019050919050565b600061117b600d8361137b565b91507f496e76616c696420546f6b656e000000000000000000000000000000000000006000830152602082019050919050565b60006111bb600f8361137b565b91507f4e6f207374616b656420457468657200000000000000000000000000000000006000830152602082019050919050565b60006111fb600f8361137b565b91507f4e6f2066656520746f20636c61696d00000000000000000000000000000000006000830152602082019050919050565b611237816114df565b82525050565b60006020820190506112526000830184611101565b92915050565b600060408201905061126d6000830185611101565b61127a602083018461122e565b9392505050565b60006020820190506112966000830184611110565b92915050565b60006020820190506112b1600083018461111f565b92915050565b600060208201905081810360008301526112d08161112e565b9050919050565b600060208201905081810360008301526112f08161116e565b9050919050565b60006020820190508181036000830152611310816111ae565b9050919050565b60006020820190508181036000830152611330816111ee565b9050919050565b600060208201905061134c600083018461122e565b92915050565b6000604082019050611367600083018561122e565b611374602083018461122e565b9392505050565b600082825260208201905092915050565b6000611397826114df565b91506113a2836114df565b9250827fffffffffffffffffffffffffffffffffffffffffffffffffffffffffffffffff038211156113d7576113d661150d565b5b828201905092915050565b60006113ed826114df565b91506113f8836114df565b9250826114085761140761153c565b5b828204905092915050565b600061141e826114df565b9150611429836114df565b9250817fffffffffffffffffffffffffffffffffffffffffffffffffffffffffffffffff04831182151516156114625761146161150d565b5b828202905092915050565b6000611478826114df565b9150611483836114df565b9250828210156114965761149561150d565b5b828203905092915050565b60006114ac826114bf565b9050919050565b60008115159050919050565b600073ffffffffffffffffffffffffffffffffffffffff82169050919050565b6000819050919050565b60006114f4826114fb565b9050919050565b6000611506826114bf565b9050919050565b7f4e487b7100000000000000000000000000000000000000000000000000000000600052601160045260246000fd5b7f4e487b7100000000000000000000000000000000000000000000000000000000600052601260045260246000fd5b611574816114a1565b811461157f57600080fd5b50565b61158b816114df565b811461159657600080fd5b5056fea2646970667358221220a3b3e1bea9e879bd98d58504b883a8e53305d4539f10c9f060432eaa35d91eb164736f6c63430008000033",
  "immutableReferences": {},
  "source": "// SPDX-License-Identifier: MIT\r\npragma solidity ^0.8.0;\r\n\r\nimport \"./SLETH.sol\";\r\n\r\ncontract Staking{\r\n    \r\n    address public owner;\r\n    address public devAddress;\r\n    uint256 public fee = 75; //7.5% fees\r\n    uint256 private rewardFee;\r\n    uint256 private totalReward;\r\n    address constant ETHER = address(0);\r\n    SLETH public slETH;\r\n    \r\n    //storing stakers addresses\r\n    address[] public stakers;\r\n    mapping(address => mapping(address=> uint256)) public stakingBalance;\r\n    uint256 public stakedAmount;\r\n    mapping(address => uint256) public rewardBalance;\r\n    mapping(address => bool) public isStaking;\r\n    mapping(address => bool) public hasStaked;\r\n    \r\n    //events\r\n    event Stake(address indexed token, address indexed user, uint256 amount, uint256 balance);\r\n    event TransferSeth(address indexed user, uint256 amount, uint timestamp);\r\n    event Withdraw(address indexed token, address indexed user, uint256 amount, uint256 balance);\r\n    event ClaimRewards(address indexed user, uint256 amount);\r\n\r\n    constructor( address _owner, address _devAddress/*, SLETH _slETH*/ ){\r\n        owner = _owner;\r\n        devAddress = _devAddress;\r\n        //slETH = _slETH;\r\n    }\r\n\r\n    modifier onlyOwner {\r\n        require(msg.sender == owner);\r\n        _;\r\n    }\r\n\r\n    function stakeETHER(address _token, uint256 _amount) payable public{\r\n        require(_token == ETHER, \"Invalid Token\");\r\n        if(!hasStaked[msg.sender]){\r\n            stakers.push(msg.sender);\r\n        }\r\n        stakingBalance[_token][msg.sender] = stakingBalance[_token][msg.sender]+(_amount);\r\n        isStaking[msg.sender] = true;\r\n        hasStaked[msg.sender] = true;\r\n        stakedAmount += _amount;\r\n        emit Stake(_token, msg.sender, _amount, stakingBalance[_token][msg.sender]);\r\n        slETH._mint(msg.sender, _amount);\r\n        emit TransferSeth(msg.sender, _amount, block.timestamp);\r\n    }\r\n\r\n    /*This is for users only. Users can call this function to withdraw their staked eth.\r\n      Commenting out this function for now. We would have to decide whether we want to give user slETH or just give them options to withdraw. \r\n      We can not have both these options. Otherwise, user will be able to trade their slETH to eth and claim the eth they staked as well.\r\n    */\r\n    // function userWithdraw(uint256 _amount) public {\r\n    //     require(isStaking[msg.sender] == true, \"No Eth to withdraw\");\r\n    //     require(stakingBalance[ETHER][msg.sender]>=_amount);\r\n    //     stakingBalance[ETHER][msg.sender] =stakingBalance[ETHER][msg.sender]-(_amount);\r\n    //     payable(msg.sender).transfer(_amount);\r\n    //     isStaking[msg.sender] == false;\r\n    //     emit Withdraw(ETHER, msg.sender, _amount, stakingBalance[ETHER][msg.sender]); \r\n    // }\r\n\r\n    /* setReward will be called by the owner only once a day to update the total reward */\r\n    function setReward(uint256 _reward) public onlyOwner {\r\n            totalReward = _reward;\r\n    }\r\n\r\n    /* claimReward will be called by the user. We can set the condition where owner are not able to call this function.\r\n        further info is needed by the client*/\r\n    function claimReward() public{\r\n        require(isStaking[msg.sender]==true, \"No staked Ether\");\r\n        require(msg.sender == address(0), \"Invalid address\");\r\n        uint256 rewardPerUser = calculateRewards(msg.sender);\r\n        payable(msg.sender).transfer(rewardPerUser);\r\n        emit ClaimRewards(msg.sender, rewardPerUser);\r\n\r\n    }\r\n\r\n    /* calculateRewards will calculate the user reward based on eth satked by the user/ total staked eth. */\r\n    function calculateRewards(address _user) internal returns(uint256) {\r\n        uint256 stakedEthByuser = stakingBalance[ETHER][_user];\r\n        rewardFee = (totalReward*fee)/1000;\r\n        uint256 netReward = totalReward-rewardFee;\r\n        uint256 allocationPerUser = (stakedEthByuser*100)/stakedAmount;\r\n        rewardBalance[_user] = (allocationPerUser*netReward)/100;\r\n        return rewardBalance[_user];\r\n    }\r\n\r\n    /* claimFee will be called by the owner only.\r\n       upon calling 7.5% reward fees will get transfered to dev address. Which we will set when depolying this contract  */\r\n    function claimFee() public onlyOwner {\r\n        require(rewardFee > 0, \"No fee to claim\");\r\n        payable(devAddress).transfer(rewardFee);\r\n    }\r\n\r\n    /*WithdrawEther can be only called by owner. This function will get only called if the total staked balance is equal\r\n      or more than discussed amount.\r\n    */\r\n    function withdrawEther(uint256 _amount) public onlyOwner{\r\n        payable(msg.sender).transfer(_amount);\r\n    }\r\n\r\n    function balanceOf(address _user) public view returns (uint256){\r\n        return stakingBalance[ETHER][_user];\r\n    }\r\n\r\n    function stillStaking() public view returns(bool){\r\n        return isStaking[msg.sender];\r\n    }\r\n}",
  "sourcePath": "/mnt/c/pr0/lightNodeContracts/contracts/Staking.sol",
  "compiler": {
    "name": "solc",
    "version": "0.8.0+commit.c7dfd78e.Emscripten.clang"
  },
  "schemaVersion": "3.2.5",
  "updatedAt": "2022-02-04T06:38:52.068Z",
  "networkType": "ethereum",
  "devdoc": {
    "kind": "dev",
    "methods": {},
    "version": 1
  },
  "userdoc": {
    "kind": "user",
    "methods": {},
    "version": 1
  }
}